{
  "contractName": "DepositHolder",
  "abi": [
    {
      "constant": false,
      "inputs": [
        {
          "name": "_newOwner",
          "type": "address"
        }
      ],
      "name": "setOwner",
      "outputs": [
        {
          "name": "",
          "type": "bool"
        }
      ],
      "payable": false,
      "stateMutability": "nonpayable",
      "type": "function"
    },
    {
      "constant": true,
      "inputs": [],
      "name": "getOwner",
      "outputs": [
        {
          "name": "",
          "type": "address"
        }
      ],
      "payable": false,
      "stateMutability": "view",
      "type": "function"
    },
    {
      "inputs": [
        {
          "name": "_deposit",
          "type": "uint256"
        }
      ],
      "payable": false,
      "stateMutability": "nonpayable",
      "type": "constructor"
    },
    {
      "anonymous": false,
      "inputs": [
        {
          "indexed": true,
          "name": "sender",
          "type": "address"
        },
        {
          "indexed": false,
          "name": "amount",
          "type": "uint256"
        }
      ],
      "name": "LogDepositSet",
      "type": "event"
    },
    {
      "anonymous": false,
      "inputs": [
        {
          "indexed": true,
          "name": "previousOwner",
          "type": "address"
        },
        {
          "indexed": true,
          "name": "newOwner",
          "type": "address"
        }
      ],
      "name": "LogOwnerSet",
      "type": "event"
    },
    {
      "constant": false,
      "inputs": [
        {
          "name": "_depositWeis",
          "type": "uint256"
        }
      ],
      "name": "setDeposit",
      "outputs": [
        {
          "name": "success",
          "type": "bool"
        }
      ],
      "payable": false,
      "stateMutability": "nonpayable",
      "type": "function"
    },
    {
      "constant": true,
      "inputs": [],
      "name": "getDeposit",
      "outputs": [
        {
          "name": "depositedWeis",
          "type": "uint256"
        }
      ],
      "payable": false,
      "stateMutability": "view",
      "type": "function"
    }
  ],
  "bytecode": "0x608060405234801561001057600080fd5b50604051602080610599833981016040525160008054600160a060020a0319163317815581116100a157604080517f08c379a000000000000000000000000000000000000000000000000000000000815260206004820181905260248201527f54686520696e697469616c206465706f7369742063616e6e6f7420626520302e604482015290519081900360640190fd5b6001556104e6806100b36000396000f3006080604052600436106100615763ffffffff7c010000000000000000000000000000000000000000000000000000000060003504166313af40358114610066578063893d20e81461009b578063c399ec88146100cc578063f5bade66146100f3575b600080fd5b34801561007257600080fd5b50610087600160a060020a036004351661010b565b604080519115158252519081900360200190f35b3480156100a757600080fd5b506100b06102dc565b60408051600160a060020a039092168252519081900360200190f35b3480156100d857600080fd5b506100e16102eb565b60408051918252519081900360200190f35b3480156100ff57600080fd5b506100876004356102f1565b60008054600160a060020a03163314610194576040805160e560020a62461bcd02815260206004820152602260248201527f4f6e6c79206f776e65722063616e20706572666f726d2074686973206163746960448201527f6f6e000000000000000000000000000000000000000000000000000000000000606482015290519081900360840190fd5b600160a060020a03821615156101f4576040805160e560020a62461bcd02815260206004820152601d60248201527f4e6577206f776e65722063616e6e6f7420626520302061646472657373000000604482015290519081900360640190fd5b600160a060020a03821633141561027b576040805160e560020a62461bcd02815260206004820152602760248201527f4e6577206f776e6572206d75737420626520646966666572656e74207468616e60448201527f2073656e64657200000000000000000000000000000000000000000000000000606482015290519081900360840190fd5b6000805473ffffffffffffffffffffffffffffffffffffffff1916600160a060020a038481169190911780835560405191169133917fa1d2149652d81eb35c360c115fc7ac594124cb1ea8a5a33e9a7f5768c62869fb9190a3506001919050565b600054600160a060020a031690565b60015490565b60008054600160a060020a0316331461037a576040805160e560020a62461bcd02815260206004820152602260248201527f4f6e6c79206f776e65722063616e20706572666f726d2074686973206163746960448201527f6f6e000000000000000000000000000000000000000000000000000000000000606482015290519081900360840190fd5b600082116103f7576040805160e560020a62461bcd028152602060048201526024808201527f4465706f73697465642077656973206d7573742062652062696767657220746860448201527f616e203000000000000000000000000000000000000000000000000000000000606482015290519081900360840190fd5b600154821415610477576040805160e560020a62461bcd02815260206004820152602d60248201527f4e6577206465706f736974206973206e6f20646966666572656e74207468616e60448201527f2063757272656e74206f6e652e00000000000000000000000000000000000000606482015290519081900360840190fd5b600182905560408051838152905133917ffa53ebd539f52eb4ef352ffacb2f8f5f8080cd8bb7ebb2f1acab3e1ce4bd65cb919081900360200190a25060019190505600a165627a7a72305820577e1c338c821afb727f3906e924c8f9920df81755c36486191a98aabd26d1c00029",
  "source": "pragma solidity ^0.4.24;\n\n\nimport \"./interfaces/DepositHolderI.sol\";\nimport \"./Owned.sol\";\n\n\ncontract DepositHolder is DepositHolderI, Owned {\n\n    uint internal deposit;\n\n    event LogDepositSet(address indexed sender, uint amount);\n\n    constructor(uint _deposit) public {\n        require(_deposit > 0, \"The initial deposit cannot be 0.\");\n        deposit = _deposit;\n    }\n\n    function setDeposit(uint _depositWeis) public fromOwner returns (bool success) {\n        require(_depositWeis > 0, \"Deposited weis must be bigger than 0\");\n        require(_depositWeis != deposit, \"New deposit is no different than current one.\");\n        deposit = _depositWeis;\n        emit LogDepositSet(msg.sender, _depositWeis);\n        return true;\n    }\n\n    function getDeposit() public view returns(uint depositedWeis) {\n        return deposit;\n    }\n}",
  "sourcePath": "/Users/wojciechkalinski/workspace-oracle-exam2/wojkal-code/contracts/DepositHolder.sol",
  "compiler": {
    "name": "solc",
    "version": "0.4.25+commit.59dbf8f1.Emscripten.clang"
  },
  "schemaVersion": "3.0.0-beta.2",
  "updatedAt": "2019-04-28T16:00:27.700Z",
  "devdoc": {
    "methods": {}
  },
  "userdoc": {
    "methods": {}
  }
}