{
  "contractName": "MultiplierHolder",
  "abi": [
    {
      "constant": false,
      "inputs": [
        {
          "name": "_newOwner",
          "type": "address"
        }
      ],
      "name": "setOwner",
      "outputs": [
        {
          "name": "",
          "type": "bool"
        }
      ],
      "payable": false,
      "stateMutability": "nonpayable",
      "type": "function"
    },
    {
      "constant": true,
      "inputs": [],
      "name": "getOwner",
      "outputs": [
        {
          "name": "",
          "type": "address"
        }
      ],
      "payable": false,
      "stateMutability": "view",
      "type": "function"
    },
    {
      "inputs": [],
      "payable": false,
      "stateMutability": "nonpayable",
      "type": "constructor"
    },
    {
      "anonymous": false,
      "inputs": [
        {
          "indexed": true,
          "name": "sender",
          "type": "address"
        },
        {
          "indexed": true,
          "name": "vehicleType",
          "type": "uint256"
        },
        {
          "indexed": false,
          "name": "multiplier",
          "type": "uint256"
        }
      ],
      "name": "LogMultiplierSet",
      "type": "event"
    },
    {
      "anonymous": false,
      "inputs": [
        {
          "indexed": true,
          "name": "previousOwner",
          "type": "address"
        },
        {
          "indexed": true,
          "name": "newOwner",
          "type": "address"
        }
      ],
      "name": "LogOwnerSet",
      "type": "event"
    },
    {
      "constant": false,
      "inputs": [
        {
          "name": "_vehicleType",
          "type": "uint256"
        },
        {
          "name": "_newMultiplier",
          "type": "uint256"
        }
      ],
      "name": "setMultiplier",
      "outputs": [
        {
          "name": "success",
          "type": "bool"
        }
      ],
      "payable": false,
      "stateMutability": "nonpayable",
      "type": "function"
    },
    {
      "constant": true,
      "inputs": [
        {
          "name": "_vehicleType",
          "type": "uint256"
        }
      ],
      "name": "getMultiplier",
      "outputs": [
        {
          "name": "multiplier",
          "type": "uint256"
        }
      ],
      "payable": false,
      "stateMutability": "view",
      "type": "function"
    }
  ],
  "bytecode": "0x608060405234801561001057600080fd5b5060008054600160a060020a031916331790556104ee806100326000396000f3006080604052600436106100615763ffffffff7c010000000000000000000000000000000000000000000000000000000060003504166313af40358114610066578063333271d01461009b578063893d20e8146100b6578063adf8252d146100e7575b600080fd5b34801561007257600080fd5b50610087600160a060020a0360043516610111565b604080519115158252519081900360200190f35b3480156100a757600080fd5b506100876004356024356102e2565b3480156100c257600080fd5b506100cb6104a1565b60408051600160a060020a039092168252519081900360200190f35b3480156100f357600080fd5b506100ff6004356104b0565b60408051918252519081900360200190f35b60008054600160a060020a0316331461019a576040805160e560020a62461bcd02815260206004820152602260248201527f4f6e6c79206f776e65722063616e20706572666f726d2074686973206163746960448201527f6f6e000000000000000000000000000000000000000000000000000000000000606482015290519081900360840190fd5b600160a060020a03821615156101fa576040805160e560020a62461bcd02815260206004820152601d60248201527f4e6577206f776e65722063616e6e6f7420626520302061646472657373000000604482015290519081900360640190fd5b600160a060020a038216331415610281576040805160e560020a62461bcd02815260206004820152602760248201527f4e6577206f776e6572206d75737420626520646966666572656e74207468616e60448201527f2073656e64657200000000000000000000000000000000000000000000000000606482015290519081900360840190fd5b6000805473ffffffffffffffffffffffffffffffffffffffff1916600160a060020a038481169190911780835560405191169133917fa1d2149652d81eb35c360c115fc7ac594124cb1ea8a5a33e9a7f5768c62869fb9190a3506001919050565b60008054600160a060020a0316331461036b576040805160e560020a62461bcd02815260206004820152602260248201527f4f6e6c79206f776e65722063616e20706572666f726d2074686973206163746960448201527f6f6e000000000000000000000000000000000000000000000000000000000000606482015290519081900360840190fd5b600083116103c3576040805160e560020a62461bcd02815260206004820152601860248201527f56656869636c6520747970652063616e6e6f7420626520300000000000000000604482015290519081900360640190fd5b60008381526001602052604090205482141561044f576040805160e560020a62461bcd02815260206004820152603260248201527f4e6577206d756c7469706c696572206d75737420626520646966666572656e7460448201527f207468616e2063757272656e74206f6e652e0000000000000000000000000000606482015290519081900360840190fd5b60008381526001602090815260409182902084905581518481529151859233927f5e168e70d5925560e1407b68dc2495afbc25b36217cc6e4167b2cf3f28a46ef192918290030190a350600192915050565b600054600160a060020a031690565b600090815260016020526040902054905600a165627a7a72305820a8ec8cc326b8d99d8d21f6bd1ec37e1244074d811517478b613bf58160f9ebe10029",
  "source": "pragma solidity ^0.4.24;\n\nimport \"./interfaces/MultiplierHolderI.sol\";\nimport \"./Owned.sol\";\n\n\ncontract MultiplierHolder is Owned, MultiplierHolderI {\n\n    mapping(uint => uint) internal multipliers;\n\n    event LogMultiplierSet(address indexed sender, uint indexed vehicleType, uint multiplier);\n\n    constructor() public {}\n\n    function setMultiplier(uint _vehicleType, uint _newMultiplier) public fromOwner returns(bool success) {\n        require(_vehicleType > 0, \"Vehicle type cannot be 0\");\n        require(multipliers[_vehicleType] != _newMultiplier, \"New multiplier must be different than current one.\");\n        multipliers[_vehicleType] = _newMultiplier;\n        emit LogMultiplierSet(msg.sender, _vehicleType, _newMultiplier);\n        return true;\n    }\n\n    function getMultiplier(uint _vehicleType) public view returns(uint multiplier) {\n        return multipliers[_vehicleType]; \n    }\n}",
  "sourcePath": "/Users/wojciechkalinski/workspace-oracle-exam2/wojkal-code/contracts/MultiplierHolder.sol",
  "compiler": {
    "name": "solc",
    "version": "0.4.25+commit.59dbf8f1.Emscripten.clang"
  },
  "schemaVersion": "3.0.0-beta.2",
  "updatedAt": "2019-04-28T16:00:27.702Z",
  "devdoc": {
    "methods": {}
  },
  "userdoc": {
    "methods": {}
  }
}