{
  "contractName": "Owned",
  "abi": [
    {
      "inputs": [],
      "payable": false,
      "stateMutability": "nonpayable",
      "type": "constructor"
    },
    {
      "anonymous": false,
      "inputs": [
        {
          "indexed": true,
          "name": "previousOwner",
          "type": "address"
        },
        {
          "indexed": true,
          "name": "newOwner",
          "type": "address"
        }
      ],
      "name": "LogOwnerSet",
      "type": "event"
    },
    {
      "constant": false,
      "inputs": [
        {
          "name": "_newOwner",
          "type": "address"
        }
      ],
      "name": "setOwner",
      "outputs": [
        {
          "name": "",
          "type": "bool"
        }
      ],
      "payable": false,
      "stateMutability": "nonpayable",
      "type": "function"
    },
    {
      "constant": true,
      "inputs": [],
      "name": "getOwner",
      "outputs": [
        {
          "name": "",
          "type": "address"
        }
      ],
      "payable": false,
      "stateMutability": "view",
      "type": "function"
    }
  ],
  "bytecode": "0x608060405234801561001057600080fd5b5060008054600160a060020a03191633179055610307806100326000396000f30060806040526004361061004b5763ffffffff7c010000000000000000000000000000000000000000000000000000000060003504166313af40358114610050578063893d20e814610085575b600080fd5b34801561005c57600080fd5b50610071600160a060020a03600435166100b6565b604080519115158252519081900360200190f35b34801561009157600080fd5b5061009a6102cc565b60408051600160a060020a039092168252519081900360200190f35b60008054600160a060020a0316331461015657604080517f08c379a000000000000000000000000000000000000000000000000000000000815260206004820152602260248201527f4f6e6c79206f776e65722063616e20706572666f726d2074686973206163746960448201527f6f6e000000000000000000000000000000000000000000000000000000000000606482015290519081900360840190fd5b600160a060020a03821615156101cd57604080517f08c379a000000000000000000000000000000000000000000000000000000000815260206004820152601d60248201527f4e6577206f776e65722063616e6e6f7420626520302061646472657373000000604482015290519081900360640190fd5b600160a060020a03821633141561026b57604080517f08c379a000000000000000000000000000000000000000000000000000000000815260206004820152602760248201527f4e6577206f776e6572206d75737420626520646966666572656e74207468616e60448201527f2073656e64657200000000000000000000000000000000000000000000000000606482015290519081900360840190fd5b6000805473ffffffffffffffffffffffffffffffffffffffff1916600160a060020a038481169190911780835560405191169133917fa1d2149652d81eb35c360c115fc7ac594124cb1ea8a5a33e9a7f5768c62869fb9190a3506001919050565b600054600160a060020a0316905600a165627a7a723058204c8d7ba4c932d5b3f4f3d124d0505c7cef37007117aaed13ed9429f9e543d7500029",
  "source": "pragma solidity ^0.4.24;\n\nimport \"./interfaces/OwnedI.sol\";\n\n\ncontract Owned is OwnedI {\n  \n    address internal owner;\n\n    modifier fromOwner {\n        require(msg.sender == owner, \"Only owner can perform this action\");\n        _;\n    }\n\n    event LogOwnerSet(address indexed previousOwner, address indexed newOwner);\n\n    constructor() public {\n        owner = msg.sender;\n    }\n\n    function setOwner(address _newOwner) public fromOwner returns(bool) {\n        require(_newOwner != 0x0, \"New owner cannot be 0 address\");\n        require(_newOwner != msg.sender, \"New owner must be different than sender\");\n        owner = _newOwner;\n        emit LogOwnerSet(msg.sender, owner);\n        return true;\n    }\n\n    function getOwner() public view returns(address) {\n        return owner;\n    }\n}",
  "sourcePath": "/Users/wojciechkalinski/workspace-oracle-exam2/wojkal-code/contracts/Owned.sol",
  "compiler": {
    "name": "solc",
    "version": "0.4.25+commit.59dbf8f1.Emscripten.clang"
  },
  "schemaVersion": "3.0.0-beta.2",
  "updatedAt": "2019-04-28T16:00:27.703Z",
  "devdoc": {
    "methods": {}
  },
  "userdoc": {
    "methods": {}
  }
}