{
  "contractName": "PausableMock",
  "abi": [
    {
      "constant": false,
      "inputs": [
        {
          "name": "_newOwner",
          "type": "address"
        }
      ],
      "name": "setOwner",
      "outputs": [
        {
          "name": "",
          "type": "bool"
        }
      ],
      "payable": false,
      "stateMutability": "nonpayable",
      "type": "function"
    },
    {
      "constant": false,
      "inputs": [
        {
          "name": "_state",
          "type": "bool"
        }
      ],
      "name": "setPaused",
      "outputs": [
        {
          "name": "",
          "type": "bool"
        }
      ],
      "payable": false,
      "stateMutability": "nonpayable",
      "type": "function"
    },
    {
      "constant": true,
      "inputs": [
        {
          "name": "",
          "type": "bool"
        }
      ],
      "name": "counters",
      "outputs": [
        {
          "name": "",
          "type": "uint256"
        }
      ],
      "payable": false,
      "stateMutability": "view",
      "type": "function"
    },
    {
      "constant": true,
      "inputs": [],
      "name": "getOwner",
      "outputs": [
        {
          "name": "",
          "type": "address"
        }
      ],
      "payable": false,
      "stateMutability": "view",
      "type": "function"
    },
    {
      "constant": true,
      "inputs": [],
      "name": "isPaused",
      "outputs": [
        {
          "name": "",
          "type": "bool"
        }
      ],
      "payable": false,
      "stateMutability": "view",
      "type": "function"
    },
    {
      "inputs": [
        {
          "name": "paused",
          "type": "bool"
        }
      ],
      "payable": false,
      "stateMutability": "nonpayable",
      "type": "constructor"
    },
    {
      "anonymous": false,
      "inputs": [
        {
          "indexed": true,
          "name": "_sender",
          "type": "address"
        },
        {
          "indexed": true,
          "name": "_newPausedState",
          "type": "bool"
        }
      ],
      "name": "LogPausedSet",
      "type": "event"
    },
    {
      "anonymous": false,
      "inputs": [
        {
          "indexed": true,
          "name": "previousOwner",
          "type": "address"
        },
        {
          "indexed": true,
          "name": "newOwner",
          "type": "address"
        }
      ],
      "name": "LogOwnerSet",
      "type": "event"
    },
    {
      "constant": false,
      "inputs": [],
      "name": "countUpWhenPaused",
      "outputs": [],
      "payable": false,
      "stateMutability": "nonpayable",
      "type": "function"
    },
    {
      "constant": false,
      "inputs": [],
      "name": "countUpWhenNotPaused",
      "outputs": [],
      "payable": false,
      "stateMutability": "nonpayable",
      "type": "function"
    }
  ],
  "bytecode": "0x608060405234801561001057600080fd5b50604051602080610675833981016040525160008054911515740100000000000000000000000000000000000000000260a060020a60ff0219600160a060020a0319909316331792909216919091179055610605806100706000396000f3006080604052600436106100825763ffffffff7c010000000000000000000000000000000000000000000000000000000060003504166313af4035811461008757806316c38b3c146100bc5780635a02ee76146100d657806379f7a43a146100ed578063893d20e8146101195780639d42ea341461014a578063b187bd261461015f575b600080fd5b34801561009357600080fd5b506100a8600160a060020a0360043516610174565b604080519115158252519081900360200190f35b3480156100c857600080fd5b506100a86004351515610345565b3480156100e257600080fd5b506100eb6104bc565b005b3480156100f957600080fd5b506101076004351515610546565b60408051918252519081900360200190f35b34801561012557600080fd5b5061012e610558565b60408051600160a060020a039092168252519081900360200190f35b34801561015657600080fd5b506100eb610567565b34801561016b57600080fd5b506100a86105c9565b60008054600160a060020a031633146101fd576040805160e560020a62461bcd02815260206004820152602260248201527f4f6e6c79206f776e65722063616e20706572666f726d2074686973206163746960448201527f6f6e000000000000000000000000000000000000000000000000000000000000606482015290519081900360840190fd5b600160a060020a038216151561025d576040805160e560020a62461bcd02815260206004820152601d60248201527f4e6577206f776e65722063616e6e6f7420626520302061646472657373000000604482015290519081900360640190fd5b600160a060020a0382163314156102e4576040805160e560020a62461bcd02815260206004820152602760248201527f4e6577206f776e6572206d75737420626520646966666572656e74207468616e60448201527f2073656e64657200000000000000000000000000000000000000000000000000606482015290519081900360840190fd5b6000805473ffffffffffffffffffffffffffffffffffffffff1916600160a060020a038481169190911780835560405191169133917fa1d2149652d81eb35c360c115fc7ac594124cb1ea8a5a33e9a7f5768c62869fb9190a3506001919050565b60008054600160a060020a031633146103ce576040805160e560020a62461bcd02815260206004820152602260248201527f4f6e6c79206f776e65722063616e20706572666f726d2074686973206163746960448201527f6f6e000000000000000000000000000000000000000000000000000000000000606482015290519081900360840190fd5b60005460a060020a900460ff161515821515141561045c576040805160e560020a62461bcd02815260206004820152602d60248201527f4e6577207374617465206d75737420626520646966666572656e74207468616e60448201527f2063757272656e74206f6e652e00000000000000000000000000000000000000606482015290519081900360840190fd5b6000805474ff0000000000000000000000000000000000000000191660a060020a841515908102919091178255604051909133917fae0f86d9801b0bd39a2ce25d9fd1f202f2fd22e80150be4a99adb0275a635d6c9190a3506001919050565b60005460a060020a900460ff16151561051f576040805160e560020a62461bcd02815260206004820152600f60248201527f4d757374206265207061757365642e0000000000000000000000000000000000604482015290519081900360640190fd5b6001600061052b6105c9565b15158152602081019190915260400160002080546001019055565b60016020526000908152604090205481565b600054600160a060020a031690565b60005460a060020a900460ff161561051f576040805160e560020a62461bcd02815260206004820152601360248201527f4d757374206e6f74206265207061757365642e00000000000000000000000000604482015290519081900360640190fd5b60005460a060020a900460ff16905600a165627a7a723058205547ff2d9ee557226cb2420208c451cfa1e042f5de06eea043360eb16d2c3a9a0029",
  "source": "pragma solidity ^0.4.24;\n\nimport { Pausable } from \"../Pausable.sol\";\n\ncontract PausableMock is Pausable {\n\n    mapping(bool => uint) public counters;\n\n    constructor(bool paused) Pausable(paused) public {\n    }\n\n    function countUpWhenPaused()\n        whenPaused public {\n        counters[isPaused()]++;\n    }\n\n    function countUpWhenNotPaused()\n        whenNotPaused public {\n        counters[isPaused()]++;\n    }\n}",
  "sourcePath": "/Users/wojciechkalinski/workspace-oracle-exam2/wojkal-code/contracts/mock/PausableMock.sol",
  "compiler": {
    "name": "solc",
    "version": "0.4.25+commit.59dbf8f1.Emscripten.clang"
  },
  "schemaVersion": "3.0.0-beta.2",
  "updatedAt": "2019-04-28T16:00:27.718Z",
  "devdoc": {
    "methods": {}
  },
  "userdoc": {
    "methods": {}
  }
}