{
  "contractName": "Pausable",
  "abi": [
    {
      "constant": false,
      "inputs": [
        {
          "name": "_newOwner",
          "type": "address"
        }
      ],
      "name": "setOwner",
      "outputs": [
        {
          "name": "",
          "type": "bool"
        }
      ],
      "payable": false,
      "stateMutability": "nonpayable",
      "type": "function"
    },
    {
      "constant": true,
      "inputs": [],
      "name": "getOwner",
      "outputs": [
        {
          "name": "",
          "type": "address"
        }
      ],
      "payable": false,
      "stateMutability": "view",
      "type": "function"
    },
    {
      "inputs": [
        {
          "name": "newState",
          "type": "bool"
        }
      ],
      "payable": false,
      "stateMutability": "nonpayable",
      "type": "constructor"
    },
    {
      "anonymous": false,
      "inputs": [
        {
          "indexed": true,
          "name": "_sender",
          "type": "address"
        },
        {
          "indexed": true,
          "name": "_newPausedState",
          "type": "bool"
        }
      ],
      "name": "LogPausedSet",
      "type": "event"
    },
    {
      "anonymous": false,
      "inputs": [
        {
          "indexed": true,
          "name": "previousOwner",
          "type": "address"
        },
        {
          "indexed": true,
          "name": "newOwner",
          "type": "address"
        }
      ],
      "name": "LogOwnerSet",
      "type": "event"
    },
    {
      "constant": false,
      "inputs": [
        {
          "name": "_state",
          "type": "bool"
        }
      ],
      "name": "setPaused",
      "outputs": [
        {
          "name": "",
          "type": "bool"
        }
      ],
      "payable": false,
      "stateMutability": "nonpayable",
      "type": "function"
    },
    {
      "constant": true,
      "inputs": [],
      "name": "isPaused",
      "outputs": [
        {
          "name": "",
          "type": "bool"
        }
      ],
      "payable": false,
      "stateMutability": "view",
      "type": "function"
    }
  ],
  "bytecode": "0x608060405234801561001057600080fd5b50604051602080610531833981016040525160008054911515740100000000000000000000000000000000000000000260a060020a60ff0219600160a060020a03199093163317929092169190911790556104c1806100706000396000f3006080604052600436106100615763ffffffff7c010000000000000000000000000000000000000000000000000000000060003504166313af4035811461006657806316c38b3c1461009b578063893d20e8146100b5578063b187bd26146100e6575b600080fd5b34801561007257600080fd5b50610087600160a060020a03600435166100fb565b604080519115158252519081900360200190f35b3480156100a757600080fd5b5061008760043515156102cc565b3480156100c157600080fd5b506100ca610465565b60408051600160a060020a039092168252519081900360200190f35b3480156100f257600080fd5b50610087610474565b60008054600160a060020a03163314610184576040805160e560020a62461bcd02815260206004820152602260248201527f4f6e6c79206f776e65722063616e20706572666f726d2074686973206163746960448201527f6f6e000000000000000000000000000000000000000000000000000000000000606482015290519081900360840190fd5b600160a060020a03821615156101e4576040805160e560020a62461bcd02815260206004820152601d60248201527f4e6577206f776e65722063616e6e6f7420626520302061646472657373000000604482015290519081900360640190fd5b600160a060020a03821633141561026b576040805160e560020a62461bcd02815260206004820152602760248201527f4e6577206f776e6572206d75737420626520646966666572656e74207468616e60448201527f2073656e64657200000000000000000000000000000000000000000000000000606482015290519081900360840190fd5b6000805473ffffffffffffffffffffffffffffffffffffffff1916600160a060020a038481169190911780835560405191169133917fa1d2149652d81eb35c360c115fc7ac594124cb1ea8a5a33e9a7f5768c62869fb9190a3506001919050565b60008054600160a060020a03163314610355576040805160e560020a62461bcd02815260206004820152602260248201527f4f6e6c79206f776e65722063616e20706572666f726d2074686973206163746960448201527f6f6e000000000000000000000000000000000000000000000000000000000000606482015290519081900360840190fd5b60005474010000000000000000000000000000000000000000900460ff16151582151514156103f4576040805160e560020a62461bcd02815260206004820152602d60248201527f4e6577207374617465206d75737420626520646966666572656e74207468616e60448201527f2063757272656e74206f6e652e00000000000000000000000000000000000000606482015290519081900360840190fd5b6000805474ff0000000000000000000000000000000000000000191674010000000000000000000000000000000000000000841515908102919091178255604051909133917fae0f86d9801b0bd39a2ce25d9fd1f202f2fd22e80150be4a99adb0275a635d6c9190a3506001919050565b600054600160a060020a031690565b60005474010000000000000000000000000000000000000000900460ff16905600a165627a7a723058201bc63f4b16ec6a3064a6f3a23accb64475d365468f1d5c3a73221cc27988f43b0029",
  "source": "pragma solidity ^0.4.24;\n\nimport \"./Owned.sol\";\nimport \"./interfaces/PausableI.sol\";\n\n\ncontract Pausable is Owned, PausableI {\n    \n    bool internal paused;\n    \n    event LogPausedSet(address indexed _sender, bool indexed _newPausedState);\n\n    modifier whenNotPaused {\n        require(!paused, \"Must not be paused.\");\n        _;\n    }\n\n    modifier whenPaused {\n        require(paused, \"Must be paused.\");\n        _;\n    }\n\n    constructor (bool newState) public {\n        paused = newState;\n    }\n\n    function setPaused(bool _state) public fromOwner returns(bool) {\n        require(_state != paused, \"New state must be different than current one.\");\n        paused = _state;\n        emit LogPausedSet(msg.sender, _state);\n        return true;\n    }\n\n    function isPaused() public view returns(bool) {\n        return paused;\n    }\n}",
  "sourcePath": "/Users/wojciechkalinski/workspace-oracle-exam2/wojkal-code/contracts/Pausable.sol",
  "compiler": {
    "name": "solc",
    "version": "0.4.25+commit.59dbf8f1.Emscripten.clang"
  },
  "schemaVersion": "3.0.0-beta.2",
  "updatedAt": "2019-04-28T16:00:27.703Z",
  "devdoc": {
    "methods": {}
  },
  "userdoc": {
    "methods": {}
  }
}