{
  "contractName": "Regulator",
  "abi": [
    {
      "constant": true,
      "inputs": [
        {
          "name": "",
          "type": "address"
        }
      ],
      "name": "vehicles",
      "outputs": [
        {
          "name": "",
          "type": "uint256"
        }
      ],
      "payable": false,
      "stateMutability": "view",
      "type": "function",
      "signature": "0x028e7768"
    },
    {
      "constant": false,
      "inputs": [
        {
          "name": "_newOwner",
          "type": "address"
        }
      ],
      "name": "setOwner",
      "outputs": [
        {
          "name": "",
          "type": "bool"
        }
      ],
      "payable": false,
      "stateMutability": "nonpayable",
      "type": "function",
      "signature": "0x13af4035"
    },
    {
      "constant": true,
      "inputs": [
        {
          "name": "",
          "type": "address"
        }
      ],
      "name": "operators",
      "outputs": [
        {
          "name": "",
          "type": "bool"
        }
      ],
      "payable": false,
      "stateMutability": "view",
      "type": "function",
      "signature": "0x13e7c9d8"
    },
    {
      "constant": true,
      "inputs": [],
      "name": "getOwner",
      "outputs": [
        {
          "name": "",
          "type": "address"
        }
      ],
      "payable": false,
      "stateMutability": "view",
      "type": "function",
      "signature": "0x893d20e8"
    },
    {
      "inputs": [],
      "payable": false,
      "stateMutability": "nonpayable",
      "type": "constructor",
      "signature": "constructor"
    },
    {
      "anonymous": false,
      "inputs": [
        {
          "indexed": true,
          "name": "sender",
          "type": "address"
        },
        {
          "indexed": true,
          "name": "vehicle",
          "type": "address"
        },
        {
          "indexed": true,
          "name": "vehicleType",
          "type": "uint256"
        }
      ],
      "name": "LogVehicleTypeSet",
      "type": "event",
      "signature": "0x9f2ee98048ade87cdf829a5e6f1089e5cc01f2afc787ff7e396df2d70e5216ce"
    },
    {
      "anonymous": false,
      "inputs": [
        {
          "indexed": true,
          "name": "sender",
          "type": "address"
        },
        {
          "indexed": true,
          "name": "operator",
          "type": "address"
        }
      ],
      "name": "LogTollBoothOperatorRemoved",
      "type": "event",
      "signature": "0x7253d8f039804cf6934064766e2c63c6939d22caf79d2a54df904eb8b0ffa295"
    },
    {
      "anonymous": false,
      "inputs": [
        {
          "indexed": true,
          "name": "sender",
          "type": "address"
        },
        {
          "indexed": true,
          "name": "newOperator",
          "type": "address"
        },
        {
          "indexed": true,
          "name": "owner",
          "type": "address"
        },
        {
          "indexed": false,
          "name": "depositWeis",
          "type": "uint256"
        }
      ],
      "name": "LogTollBoothOperatorCreated",
      "type": "event",
      "signature": "0xae2fe91936c66c7f87615f93bd9630929b5778679dc04d2a466fed57108463a8"
    },
    {
      "anonymous": false,
      "inputs": [
        {
          "indexed": true,
          "name": "previousOwner",
          "type": "address"
        },
        {
          "indexed": true,
          "name": "newOwner",
          "type": "address"
        }
      ],
      "name": "LogOwnerSet",
      "type": "event",
      "signature": "0xa1d2149652d81eb35c360c115fc7ac594124cb1ea8a5a33e9a7f5768c62869fb"
    },
    {
      "constant": false,
      "inputs": [
        {
          "name": "_vehicle",
          "type": "address"
        },
        {
          "name": "_vehicleType",
          "type": "uint256"
        }
      ],
      "name": "setVehicleType",
      "outputs": [
        {
          "name": "success",
          "type": "bool"
        }
      ],
      "payable": false,
      "stateMutability": "nonpayable",
      "type": "function",
      "signature": "0x374bd9ed"
    },
    {
      "constant": true,
      "inputs": [
        {
          "name": "_vehicle",
          "type": "address"
        }
      ],
      "name": "getVehicleType",
      "outputs": [
        {
          "name": "_vehicleType",
          "type": "uint256"
        }
      ],
      "payable": false,
      "stateMutability": "view",
      "type": "function",
      "signature": "0x0d2ce522"
    },
    {
      "constant": false,
      "inputs": [
        {
          "name": "_owner",
          "type": "address"
        },
        {
          "name": "_deposit",
          "type": "uint256"
        }
      ],
      "name": "createNewOperator",
      "outputs": [
        {
          "name": "",
          "type": "address"
        }
      ],
      "payable": false,
      "stateMutability": "nonpayable",
      "type": "function",
      "signature": "0xaf911023"
    },
    {
      "constant": false,
      "inputs": [
        {
          "name": "_operator",
          "type": "address"
        }
      ],
      "name": "removeOperator",
      "outputs": [
        {
          "name": "success",
          "type": "bool"
        }
      ],
      "payable": false,
      "stateMutability": "nonpayable",
      "type": "function",
      "signature": "0xac8a584a"
    },
    {
      "constant": true,
      "inputs": [
        {
          "name": "_operator",
          "type": "address"
        }
      ],
      "name": "isOperator",
      "outputs": [
        {
          "name": "indeed",
          "type": "bool"
        }
      ],
      "payable": false,
      "stateMutability": "view",
      "type": "function",
      "signature": "0x6d70f7ae"
    }
  ],
  "bytecode": "0x608060405234801561001057600080fd5b5060008054600160a060020a03191633179055612ee0806100326000396000f3006080604052600436106100985763ffffffff7c0100000000000000000000000000000000000000000000000000000000600035041663028e7768811461009d5780630d2ce522146100d057806313af4035146100f157806313e7c9d814610126578063374bd9ed146101475780636d70f7ae1461016b578063893d20e81461018c578063ac8a584a146101bd578063af911023146101de575b600080fd5b3480156100a957600080fd5b506100be600160a060020a0360043516610202565b60408051918252519081900360200190f35b3480156100dc57600080fd5b506100be600160a060020a0360043516610214565b3480156100fd57600080fd5b50610112600160a060020a036004351661022f565b604080519115158252519081900360200190f35b34801561013257600080fd5b50610112600160a060020a03600435166103d6565b34801561015357600080fd5b50610112600160a060020a03600435166024356103eb565b34801561017757600080fd5b50610112600160a060020a036004351661058f565b34801561019857600080fd5b506101a16105ad565b60408051600160a060020a039092168252519081900360200190f35b3480156101c957600080fd5b50610112600160a060020a03600435166105bc565b3480156101ea57600080fd5b506101a1600160a060020a036004351660243561066a565b60016020526000908152604090205481565b600160a060020a031660009081526001602052604090205490565b60008054600160a060020a0316331461028e576040805160e560020a62461bcd0281526020600482015260226024820152600080516020612e95833981519152604482015260f160020a6137b702606482015290519081900360840190fd5b600160a060020a03821615156102ee576040805160e560020a62461bcd02815260206004820152601d60248201527f4e6577206f776e65722063616e6e6f7420626520302061646472657373000000604482015290519081900360640190fd5b600160a060020a038216331415610375576040805160e560020a62461bcd02815260206004820152602760248201527f4e6577206f776e6572206d75737420626520646966666572656e74207468616e60448201527f2073656e64657200000000000000000000000000000000000000000000000000606482015290519081900360840190fd5b6000805473ffffffffffffffffffffffffffffffffffffffff1916600160a060020a038481169190911780835560405191169133917fa1d2149652d81eb35c360c115fc7ac594124cb1ea8a5a33e9a7f5768c62869fb9190a3506001919050565b60026020526000908152604090205460ff1681565b60008054600160a060020a0316331461044a576040805160e560020a62461bcd0281526020600482015260226024820152600080516020612e95833981519152604482015260f160020a6137b702606482015290519081900360840190fd5b600160a060020a03831615156104aa576040805160e560020a62461bcd02815260206004820152601b60248201527f56656869636c6520616464726573732063616e6e6f7420626520300000000000604482015290519081900360640190fd5b600160a060020a038316600090815260016020526040902054821415610540576040805160e560020a62461bcd02815260206004820152602760248201527f43686f6f73656e2076656869636c6520747970652063616e6e6f74206265207460448201527f68652073616d6500000000000000000000000000000000000000000000000000606482015290519081900360840190fd5b600160a060020a0383166000818152600160205260408082208590555184929133917f9f2ee98048ade87cdf829a5e6f1089e5cc01f2afc787ff7e396df2d70e5216ce9190a450600192915050565b600160a060020a031660009081526002602052604090205460ff1690565b600054600160a060020a031690565b60008054600160a060020a0316331461061b576040805160e560020a62461bcd0281526020600482015260226024820152600080516020612e95833981519152604482015260f160020a6137b702606482015290519081900360840190fd5b600160a060020a038216600081815260026020526040808220805460ff191690555133917f7253d8f039804cf6934064766e2c63c6939d22caf79d2a54df904eb8b0ffa29591a3506001919050565b600080548190600160a060020a031633146106cb576040805160e560020a62461bcd0281526020600482015260226024820152600080516020612e95833981519152604482015260f160020a6137b702606482015290519081900360840190fd5b33600160a060020a0385161415610752576040805160e560020a62461bcd02815260206004820152602d60248201527f4e6577206f70657261746f722063616e6e6f7420626520612073656e6465722060448201527f6f66206120636f6e747261637400000000000000000000000000000000000000606482015290519081900360840190fd5b6001833061075e6108af565b92151583526020830191909152600160a060020a03166040808301919091525190819003606001906000f08015801561079b573d6000803e3d6000fd5b50905080600160a060020a03166313af4035856040518263ffffffff167c01000000000000000000000000000000000000000000000000000000000281526004018082600160a060020a0316600160a060020a03168152602001915050602060405180830381600087803b15801561081257600080fd5b505af1158015610826573d6000803e3d6000fd5b505050506040513d602081101561083c57600080fd5b5050604080518481529051600160a060020a03808716929084169133917fae2fe91936c66c7f87615f93bd9630929b5778679dc04d2a466fed57108463a8919081900360200190a4600160a060020a0381166000908152600260205260409020805460ff19166001179055905092915050565b6040516125d5806108c0833901905600608060405234801561001057600080fd5b506040516060806125d58339810160409081528151602083015191909201516000805433600160a060020a03199091161760a060020a60ff02191674010000000000000000000000000000000000000000851515021781558190839081116100d957604080517f08c379a000000000000000000000000000000000000000000000000000000000815260206004820181905260248201527f54686520696e697469616c206465706f7369742063616e6e6f7420626520302e604482015290519081900360640190fd5b600155600160a060020a038116151561015357604080517f08c379a000000000000000000000000000000000000000000000000000000000815260206004820152601860248201527f4e657720616464726573732063616e6e6f7420626520302e0000000000000000604482015290519081900360640190fd5b600580546000805460a060020a60ff0219167401000000000000000000000000000000000000000097151597909702969096178655600194909455600160a060020a0319938416600160a060020a039283161790931691161790556124179081906101be90396000f3006080604052600436106101325763ffffffff7c01000000000000000000000000000000000000000000000000000000006000350416630bbbcbb2811461013757806313af40351461016c57806316c38b3c1461018d578063226dfb42146101a75780632c333eab146101d1578063333271d0146101f257806339a874861461020d57806350295c671461023757806350bb553a1461025e578063552c1e551461027f5780637527b1ca14610297578063893d20e8146102d9578063954d4add1461030a57806399763af614610321578063adf8252d14610336578063b187bd261461034e578063c399ec8814610363578063cb3c4cbc14610378578063cde0a4f81461039f578063dd47050f146103c0578063e23d7c5b146103d5578063f5bade66146103ff578063f7e317f414610417575b600080fd5b34801561014357600080fd5b50610158600160a060020a036004351661042c565b604080519115158252519081900360200190f35b34801561017857600080fd5b50610158600160a060020a036004351661055f565b34801561019957600080fd5b506101586004351515610706565b3480156101b357600080fd5b50610158600160a060020a0360043581169060243516604435610875565b3480156101dd57600080fd5b50610158600160a060020a0360043516610b63565b3480156101fe57600080fd5b50610158600435602435610cf8565b34801561021957600080fd5b50610225600435610e8d565b60408051918252519081900360200190f35b34801561024357600080fd5b50610225600160a060020a03600435811690602435166113df565b34801561026a57600080fd5b50610158600160a060020a03600435166114ae565b34801561028b57600080fd5b506102256004356114cc565b3480156102a357600080fd5b506102af600435611549565b60408051600160a060020a0394851681529290931660208301528183015290519081900360600190f35b3480156102e557600080fd5b506102ee611578565b60408051600160a060020a039092168252519081900360200190f35b610158600160a060020a0360043516602435611587565b34801561032d57600080fd5b50610225611936565b34801561034257600080fd5b5061022560043561193c565b34801561035a57600080fd5b5061015861194e565b34801561036f57600080fd5b5061022561196f565b34801561038457600080fd5b50610225600160a060020a0360043581169060243516611975565b3480156103ab57600080fd5b50610158600160a060020a0360043516611a01565b3480156103cc57600080fd5b50610158611be3565b3480156103e157600080fd5b50610158600160a060020a0360043581169060243516604435611c70565b34801561040b57600080fd5b50610158600435611dc8565b34801561042357600080fd5b506102ee611f67565b60008054600160a060020a0316331461048b576040805160e560020a62461bcd02815260206004820152602260248201526000805160206123cc833981519152604482015260f160020a6137b702606482015290519081900360840190fd5b610494826114ae565b1515610510576040805160e560020a62461bcd02815260206004820152602160248201527f476976656e2061646472657373206973206e6f74206120746f6c6c20626f6f7460448201527f6800000000000000000000000000000000000000000000000000000000000000606482015290519081900360840190fd5b600160a060020a038216600081815260026020526040808220805460ff191690555133917f5b34220b1e6888774f5c1badf295633d5d8d4ae02d5e3019e422b3debfe8967891a3506001919050565b60008054600160a060020a031633146105be576040805160e560020a62461bcd02815260206004820152602260248201526000805160206123cc833981519152604482015260f160020a6137b702606482015290519081900360840190fd5b600160a060020a038216151561061e576040805160e560020a62461bcd02815260206004820152601d60248201527f4e6577206f776e65722063616e6e6f7420626520302061646472657373000000604482015290519081900360640190fd5b600160a060020a0382163314156106a5576040805160e560020a62461bcd02815260206004820152602760248201527f4e6577206f776e6572206d75737420626520646966666572656e74207468616e60448201527f2073656e64657200000000000000000000000000000000000000000000000000606482015290519081900360840190fd5b6000805473ffffffffffffffffffffffffffffffffffffffff1916600160a060020a038481169190911780835560405191169133917fa1d2149652d81eb35c360c115fc7ac594124cb1ea8a5a33e9a7f5768c62869fb9190a3506001919050565b60008054600160a060020a03163314610765576040805160e560020a62461bcd02815260206004820152602260248201526000805160206123cc833981519152604482015260f160020a6137b702606482015290519081900360840190fd5b60005474010000000000000000000000000000000000000000900460ff1615158215151415610804576040805160e560020a62461bcd02815260206004820152602d60248201527f4e6577207374617465206d75737420626520646966666572656e74207468616e60448201527f2063757272656e74206f6e652e00000000000000000000000000000000000000606482015290519081900360840190fd5b6000805474ff0000000000000000000000000000000000000000191674010000000000000000000000000000000000000000841515908102919091178255604051909133917fae0f86d9801b0bd39a2ce25d9fd1f202f2fd22e80150be4a99adb0275a635d6c9190a3506001919050565b60008060008060008060008060008060149054906101000a900460ff161515156108e9576040805160e560020a62461bcd02815260206004820152601360248201527f4d757374206e6f74206265207061757365642e00000000000000000000000000604482015290519081900360640190fd5b60008a11610941576040805160e560020a62461bcd02815260206004820152601c60248201527f436f756e74206d75737420626520626967676572207468616e20302100000000604482015290519081900360640190fd5b8b8b6040516020018083600160a060020a0316600160a060020a0316606060020a02815260140182600160a060020a0316600160a060020a0316606060020a028152601401925050506040516020818303038152906040526040518082805190602001908083835b602083106109c85780518252601f1990920191602091820191016109a9565b51815160209384036101000a600019018019909216911617905260408051929094018290039091206000818152600490925292812054929c50919a50508911159150610b51905057600088815260076020526040902080549096508a1115610aa0576040805160e560020a62461bcd02815260206004820152602f60248201527f50656e64696e67207061796d656e74206d75737420626520626967676572207460448201527f68616e20676976656e20636f756e740000000000000000000000000000000000606482015290519081900360840190fd5b600094505b89851015610b5157600186015460008181526002880160205260409020549094509250610ad28388611f76565b60008681526002890160209081526040808320929092558954600019018a5560018a810180549091019055815183815290810184905281519395509193508592600160a060020a038f16927fcc28c1c2c2269c01d739ef1a54d12784fe3052b2f228668ba5f4bc862ebe51bc92908290030190a3600190940193610aa5565b5060019b9a5050505050505050505050565b60008054600160a060020a03163314610bc2576040805160e560020a62461bcd02815260206004820152602260248201526000805160206123cc833981519152604482015260f160020a6137b702606482015290519081900360840190fd5b600160a060020a0382161515610c48576040805160e560020a62461bcd02815260206004820152602260248201527f4e657720746f6c6c20626f6f746820616464726573732063616e6e6f7420626560448201527f2030000000000000000000000000000000000000000000000000000000000000606482015290519081900360840190fd5b610c51826114ae565b15610ca6576040805160e560020a62461bcd02815260206004820181905260248201527f4164647265737320697320616c7265616479206120746f6c6c20626f6f74682e604482015290519081900360640190fd5b600160a060020a038216600081815260026020526040808220805460ff191660011790555133917fe8f587f6ae5ef5f7560b94b9369dd242c9de0588c328add1a785044abf837c6d91a3506001919050565b60008054600160a060020a03163314610d57576040805160e560020a62461bcd02815260206004820152602260248201526000805160206123cc833981519152604482015260f160020a6137b702606482015290519081900360840190fd5b60008311610daf576040805160e560020a62461bcd02815260206004820152601860248201527f56656869636c6520747970652063616e6e6f7420626520300000000000000000604482015290519081900360640190fd5b600083815260036020526040902054821415610e3b576040805160e560020a62461bcd02815260206004820152603260248201527f4e6577206d756c7469706c696572206d75737420626520646966666572656e7460448201527f207468616e2063757272656e74206f6e652e0000000000000000000000000000606482015290519081900360840190fd5b60008381526003602090815260409182902084905581518481529151859233927f5e168e70d5925560e1407b68dc2495afbc25b36217cc6e4167b2cf3f28a46ef192918290030190a350600192915050565b600080600080600080600080600060149054906101000a900460ff16151515610f00576040805160e560020a62461bcd02815260206004820152601360248201527f4d757374206e6f74206265207061757365642e00000000000000000000000000604482015290519081900360640190fd5b610f09336114ae565b1515610f5f576040805160e560020a62461bcd02815260206004820152601b60248201527f53656e6465722068617320746f20626520746f6c6c20626f6f74680000000000604482015290519081900360640190fd5b610f68896114cc565b600081815260066020526040902054909750600160a060020a031615801590610fa1575060008781526006602052604090206003015415155b151561101d576040805160e560020a62461bcd02815260206004820152603a60248201527f4e6569746865722076656869636c652063616e6e6f74206265203020616e642060448201527f6465706f736974656420776569732063616e6e6f742062652030000000000000606482015290519081900360840190fd5b60008781526006602052604081209650611035611f67565b8754604080517f028e7768000000000000000000000000000000000000000000000000000000008152600160a060020a0392831660048201529051929091169163028e7768916024808201926020929091908290030181600087803b15801561109d57600080fd5b505af11580156110b1573d6000803e3d6000fd5b505050506040513d60208110156110c757600080fd5b50511161111e576040805160e560020a62461bcd02815260206004820152601960248201527f56656869636c6520747970652063616e6e6f7420626520302e00000000000000604482015290519081900360640190fd5b6002860154600160a060020a03163314156111a9576040805160e560020a62461bcd02815260206004820152602a60248201527f456e74727920626f6f74682063616e6e6f7420626520612073656e646572206f60448201527f6620636f6e747261637400000000000000000000000000000000000000000000606482015290519081900360840190fd5b600286015460408051606060020a600160a060020a039093168302602080830191909152339390930260348201528151602881830301815260489091019182905280516004936000939182918401908083835b6020831061121b5780518252601f1990920191602091820191016111fc565b6001836020036101000a03801982511681845116808217855250505050505090500191505060405180910390206000191660001916815260200190815260200160002054945060008511156112c0576112748786611f76565b60408051828152602081018490528151939750919550899233927fcc28c1c2c2269c01d739ef1a54d12784fe3052b2f228668ba5f4bc862ebe51bc92908290030190a3600197506113d3565b600286015460408051606060020a600160a060020a039093168302602080830191909152339390930260348201528151602881830301815260489091019182905280516007936000939182918401908083835b602083106113325780518252601f199092019160209182019101611313565b51815160001960209485036101000a01908116901991909116179052604080519490920184900390932086528583019690965250928401600090812060018181015482540180845260028084019097528784208f905582549091018255948c015495519097509395503394600160a060020a0316938c93507f739c4108960ded7f9e5e6790da2d3baebfb37959560441b5787b8c70676d873c9250a4600297505b50505050505050919050565b60006004600084846040516020018083600160a060020a0316600160a060020a0316606060020a02815260140182600160a060020a0316600160a060020a0316606060020a028152601401925050506040516020818303038152906040526040518082805190602001908083835b6020831061146c5780518252601f19909201916020918201910161144d565b51815160209384036101000a60001901801990921691161790526040805192909401829003909120865285019590955292909201600020549695505050505050565b600160a060020a031660009081526002602052604090205460ff1690565b604080516020808201849052825180830382018152918301928390528151600093918291908401908083835b602083106115175780518252601f1990920191602091820191016114f8565b5181516020939093036101000a6000190180199091169216919091179052604051920182900390912095945050505050565b600090815260066020526040902080546002820154600390920154600160a060020a0391821693919092169190565b600054600160a060020a031690565b600080548190819074010000000000000000000000000000000000000000900460ff16156115ff576040805160e560020a62461bcd02815260206004820152601360248201527f4d757374206e6f74206265207061757365642e00000000000000000000000000604482015290519081900360640190fd5b611608856114ae565b151561165e576040805160e560020a62461bcd02815260206004820152601e60248201527f456e74727920626f6f7468206d75737420626520746f6c6c20626f6f74680000604482015290519081900360640190fd5b600084815260066020526040902054600160a060020a0316156116cb576040805160e560020a62461bcd02815260206004820152601460248201527f56656869636c652063616e6e6f7420626520302e000000000000000000000000604482015290519081900360640190fd5b6116d3611f67565b91506003600083600160a060020a031663028e7768336040518263ffffffff167c01000000000000000000000000000000000000000000000000000000000281526004018082600160a060020a0316600160a060020a03168152602001915050602060405180830381600087803b15801561174d57600080fd5b505af1158015611761573d6000803e3d6000fd5b505050506040513d602081101561177757600080fd5b5051815260208101919091526040016000908120549150811161180a576040805160e560020a62461bcd02815260206004820152602860248201527f56656869636c65206d756c7469706c696572206d75737420626520626967676560448201527f72207468616e2030000000000000000000000000000000000000000000000000606482015290519081900360840190fd5b60015461181d908263ffffffff61201b16565b341015611874576040805160e560020a62461bcd02815260206004820181905260248201527f4465706f736974206d75737420626520626967676572206f7220657175616c21604482015290519081900360640190fd5b60408051608081018252338082526020808301858152600160a060020a038a8116858701818152346060880181815260008e8152600688528a90209851895490861673ffffffffffffffffffffffffffffffffffffffff19918216178a55955160018a015591516002890180549190951695169490941790925590516003909501949094558451908152935188947f26213b556e4ae8dd63f1f81f4ea6181803d9a3efcad477cd84dcae45a264c30b92908290030190a4506001949350505050565b60085490565b60009081526003602052604090205490565b60005474010000000000000000000000000000000000000000900460ff1690565b60015490565b60006007600084846040516020018083600160a060020a0316600160a060020a0316606060020a02815260140182600160a060020a0316600160a060020a0316606060020a028152601401925050506040516020818303038152906040526040518082805190602001908083836020831061146c5780518252601f19909201916020918201910161144d565b6000600160a060020a0382161515611a63576040805160e560020a62461bcd02815260206004820152601860248201527f4e657720616464726573732063616e6e6f7420626520302e0000000000000000604482015290519081900360640190fd5b600554600160a060020a0383811691161415611aef576040805160e560020a62461bcd02815260206004820152602b60248201527f4e657720726567756c61746f722063616e6e6f74206265207468652073616d6560448201527f20726567756c61746f722e000000000000000000000000000000000000000000606482015290519081900360840190fd5b600554600160a060020a03163314611b77576040805160e560020a62461bcd02815260206004820152602660248201527f53656e646572206d757374206265206120726567756c61746f72206f6620636f60448201527f6e74726163740000000000000000000000000000000000000000000000000000606482015290519081900360840190fd5b600554604051600160a060020a038085169216907fa32c4b1f26f0d877f643f7fb9db131f9cebf04d120fe5ada74c0bdfc808dab8390600090a35060058054600160a060020a03831673ffffffffffffffffffffffffffffffffffffffff199091161790556001919050565b600880546000918290558154604051600160a060020a039091169082156108fc0290839085818181858888f19350505050158015611c25573d6000803e3d6000fd5b50600054604080518381529051600160a060020a03909216917f851c9440e522074225f247c12030d8a38be67fbda82238aac95d4a4454647f9d9181900360200190a2600191505090565b6000805481908190600160a060020a03163314611cd3576040805160e560020a62461bcd02815260206004820152602260248201526000805160206123cc833981519152604482015260f160020a6137b702606482015290519081900360840190fd5b611cde868686612054565b5085856040516020018083600160a060020a0316600160a060020a0316606060020a02815260140182600160a060020a0316600160a060020a0316606060020a028152601401925050506040516020818303038152906040526040518082805190602001908083835b60208310611d665780518252601f199092019160209182019101611d47565b51815160209384036101000a600019018019909216911617905260408051929094018290039091206000818152600790925292812054929650919450508311159150611dbc905057611dba86866001610875565b505b50600195945050505050565b60008054600160a060020a03163314611e27576040805160e560020a62461bcd02815260206004820152602260248201526000805160206123cc833981519152604482015260f160020a6137b702606482015290519081900360840190fd5b60008211611ea4576040805160e560020a62461bcd028152602060048201526024808201527f4465706f73697465642077656973206d7573742062652062696767657220746860448201527f616e203000000000000000000000000000000000000000000000000000000000606482015290519081900360840190fd5b600154821415611f24576040805160e560020a62461bcd02815260206004820152602d60248201527f4e6577206465706f736974206973206e6f20646966666572656e74207468616e60448201527f2063757272656e74206f6e652e00000000000000000000000000000000000000606482015290519081900360840190fd5b600182905560408051838152905133917ffa53ebd539f52eb4ef352ffacb2f8f5f8080cd8bb7ebb2f1acab3e1ce4bd65cb919081900360200190a2506001919050565b600554600160a060020a031690565b6000828152600660205260408120600181015482919082908190611fa190879063ffffffff61201b16565b91508260030154905080821115611fbb5760009450611fc1565b81810394505b600880548683039081019091556000600385018190558454604051929650600160a060020a03169187156108fc0291889190818181858888f19350505050158015612010573d6000803e3d6000fd5b505050509250929050565b60008083151561202e576000915061204d565b5082820282848281151561203e57fe5b041461204957600080fd5b8091505b5092915050565b600080548190600160a060020a031633146120b5576040805160e560020a62461bcd02815260206004820152602260248201526000805160206123cc833981519152604482015260f160020a6137b702606482015290519081900360840190fd5b600160a060020a03858116908516141561213f576040805160e560020a62461bcd02815260206004820152603160248201527f416e20656e74727920626f6f746820616e64206578697420626f6f746820636160448201527f6e6e6f74206265207468652073616d6521000000000000000000000000000000606482015290519081900360840190fd5b600085600160a060020a03161180156121615750600084600160a060020a0316115b15156121b7576040805160e560020a62461bcd02815260206004820152601e60248201527f45697468657220626f6f746873206973206120307820616464726573732e0000604482015290519081900360640190fd5b6121c0856114ae565b80156121d057506121d0846114ae565b151561224c576040805160e560020a62461bcd02815260206004820152602860248201527f456e74727920626f6f746820616e64206578697420626f6f7468206d7573742060448201527f626520746f6c6c21000000000000000000000000000000000000000000000000606482015290519081900360840190fd5b84846040516020018083600160a060020a0316600160a060020a0316606060020a02815260140182600160a060020a0316600160a060020a0316606060020a028152601401925050506040516020818303038152906040526040518082805190602001908083835b602083106122d35780518252601f1990920191602091820191016122b4565b51815160209384036101000a6000190180199092169116179052604080519290940182900390912060008181526004909252929020549194505085141591506123689050576040805160e560020a62461bcd02815260206004820152601c60248201527f5468657265206d7573742061206368616e676520696e20707269636500000000604482015290519081900360640190fd5b60008181526004602090815260409182902085905581518581529151600160a060020a03808816939089169233927f5b631b37e5dfb698eace7497bcae58e93fac69e007127739fc79109d99c583329281900390910190a450600194935050505056004f6e6c79206f776e65722063616e20706572666f726d20746869732061637469a165627a7a723058206f64019b7aac948a90a31b4d165aff2f5e280cc23cfe380339e5b7141f9af25200294f6e6c79206f776e65722063616e20706572666f726d20746869732061637469a165627a7a72305820aa46ace281a2a30d6b91ae8936578f150aa8f0728ae393d558ae0ae8908819980029",
  "source": "pragma solidity ^0.4.24;\n\nimport \"./interfaces/RegulatorI.sol\";\nimport \"./Owned.sol\";\nimport \"./TollBoothOperator.sol\";\n\n\ncontract Regulator is Owned, RegulatorI {\n\n    mapping(address => uint) public vehicles;\n    mapping(address => bool) public operators;\n\n    event LogVehicleTypeSet(address indexed sender, address indexed vehicle, uint indexed vehicleType);\n    event LogTollBoothOperatorRemoved(address indexed sender, address indexed operator);\n    event LogTollBoothOperatorCreated(address indexed sender, address indexed newOperator, address indexed owner, uint depositWeis);\n\n    constructor() public {}\n\n    function setVehicleType(address _vehicle, uint _vehicleType) public fromOwner returns(bool success) {\n        require(_vehicle != 0x0, \"Vehicle address cannot be 0\");\n        require(vehicles[_vehicle] != _vehicleType, \"Choosen vehicle type cannot be the same\");\n        vehicles[_vehicle] = _vehicleType;\n        emit LogVehicleTypeSet(msg.sender, _vehicle, _vehicleType);\n        return true;\n    }\n\n    function getVehicleType(address _vehicle) public view returns(uint _vehicleType) {\n        return vehicles[_vehicle];\n    }\n\n    function createNewOperator(address _owner, uint _deposit) public fromOwner returns(TollBoothOperatorI) {\n        require(msg.sender != _owner, \"New operator cannot be a sender of a contract\");\n        TollBoothOperator newOperator = new TollBoothOperator(true, _deposit, this);\n        newOperator.setOwner(_owner);\n        emit LogTollBoothOperatorCreated(msg.sender, newOperator, _owner, _deposit);\n        operators[newOperator] = true;\n        return newOperator;\n    }\n\n    function removeOperator(address _operator) public fromOwner returns(bool success) {\n        operators[_operator] = false;\n        emit LogTollBoothOperatorRemoved(msg.sender, _operator);\n        return true;\n    }\n\n    function isOperator(address _operator) public view returns(bool indeed) {\n        return operators[_operator];\n    }\n}",
  "sourcePath": "/Users/wojciechkalinski/workspace-oracle-exam2/wojkal-code/contracts/Regulator.sol",
  "compiler": {
    "name": "solc",
    "version": "0.4.25+commit.59dbf8f1.Emscripten.clang"
  },
  "schemaVersion": "3.0.0-beta.2",
  "updatedAt": "2019-04-29T15:25:28.892Z",
  "devdoc": {
    "methods": {}
  },
  "userdoc": {
    "methods": {}
  }
}