{
  "contractName": "RoutePriceHolder",
  "abi": [
    {
      "constant": false,
      "inputs": [
        {
          "name": "_tollBooth",
          "type": "address"
        }
      ],
      "name": "removeTollBooth",
      "outputs": [
        {
          "name": "success",
          "type": "bool"
        }
      ],
      "payable": false,
      "stateMutability": "nonpayable",
      "type": "function"
    },
    {
      "constant": false,
      "inputs": [
        {
          "name": "_newOwner",
          "type": "address"
        }
      ],
      "name": "setOwner",
      "outputs": [
        {
          "name": "",
          "type": "bool"
        }
      ],
      "payable": false,
      "stateMutability": "nonpayable",
      "type": "function"
    },
    {
      "constant": false,
      "inputs": [
        {
          "name": "_tollBooth",
          "type": "address"
        }
      ],
      "name": "addTollBooth",
      "outputs": [
        {
          "name": "success",
          "type": "bool"
        }
      ],
      "payable": false,
      "stateMutability": "nonpayable",
      "type": "function"
    },
    {
      "constant": true,
      "inputs": [
        {
          "name": "_tollBooth",
          "type": "address"
        }
      ],
      "name": "isTollBooth",
      "outputs": [
        {
          "name": "indeed",
          "type": "bool"
        }
      ],
      "payable": false,
      "stateMutability": "view",
      "type": "function"
    },
    {
      "constant": true,
      "inputs": [],
      "name": "getOwner",
      "outputs": [
        {
          "name": "",
          "type": "address"
        }
      ],
      "payable": false,
      "stateMutability": "view",
      "type": "function"
    },
    {
      "inputs": [],
      "payable": false,
      "stateMutability": "nonpayable",
      "type": "constructor"
    },
    {
      "anonymous": false,
      "inputs": [
        {
          "indexed": true,
          "name": "sender",
          "type": "address"
        },
        {
          "indexed": true,
          "name": "entryBooth",
          "type": "address"
        },
        {
          "indexed": true,
          "name": "exitBooth",
          "type": "address"
        },
        {
          "indexed": false,
          "name": "priceWeis",
          "type": "uint256"
        }
      ],
      "name": "LogRoutePriceSet",
      "type": "event"
    },
    {
      "anonymous": false,
      "inputs": [
        {
          "indexed": true,
          "name": "sender",
          "type": "address"
        },
        {
          "indexed": true,
          "name": "tollBooth",
          "type": "address"
        }
      ],
      "name": "LogTollBoothAdded",
      "type": "event"
    },
    {
      "anonymous": false,
      "inputs": [
        {
          "indexed": true,
          "name": "sender",
          "type": "address"
        },
        {
          "indexed": true,
          "name": "tollBooth",
          "type": "address"
        }
      ],
      "name": "LogTollBoothRemoved",
      "type": "event"
    },
    {
      "anonymous": false,
      "inputs": [
        {
          "indexed": true,
          "name": "previousOwner",
          "type": "address"
        },
        {
          "indexed": true,
          "name": "newOwner",
          "type": "address"
        }
      ],
      "name": "LogOwnerSet",
      "type": "event"
    },
    {
      "constant": false,
      "inputs": [
        {
          "name": "_entryBooth",
          "type": "address"
        },
        {
          "name": "_exitBooth",
          "type": "address"
        },
        {
          "name": "_priceWeis",
          "type": "uint256"
        }
      ],
      "name": "setRoutePrice",
      "outputs": [
        {
          "name": "success",
          "type": "bool"
        }
      ],
      "payable": false,
      "stateMutability": "nonpayable",
      "type": "function"
    },
    {
      "constant": true,
      "inputs": [
        {
          "name": "_entryBooth",
          "type": "address"
        },
        {
          "name": "_exitBooth",
          "type": "address"
        }
      ],
      "name": "getRoutePrice",
      "outputs": [
        {
          "name": "priceWeis",
          "type": "uint256"
        }
      ],
      "payable": false,
      "stateMutability": "view",
      "type": "function"
    }
  ],
  "bytecode": "0x608060405234801561001057600080fd5b5060008054600160a060020a03191633179055610b08806100326000396000f3006080604052600436106100825763ffffffff7c01000000000000000000000000000000000000000000000000000000006000350416630bbbcbb2811461008757806313af4035146100bc5780632c333eab146100dd57806350295c67146100fe57806350bb553a14610137578063893d20e814610158578063e23d7c5b14610189575b600080fd5b34801561009357600080fd5b506100a8600160a060020a03600435166101b3565b604080519115158252519081900360200190f35b3480156100c857600080fd5b506100a8600160a060020a03600435166102e6565b3480156100e957600080fd5b506100a8600160a060020a036004351661048d565b34801561010a57600080fd5b50610125600160a060020a0360043581169060243516610625565b60408051918252519081900360200190f35b34801561014357600080fd5b506100a8600160a060020a0360043516610706565b34801561016457600080fd5b5061016d610724565b60408051600160a060020a039092168252519081900360200190f35b34801561019557600080fd5b506100a8600160a060020a0360043581169060243516604435610733565b60008054600160a060020a03163314610212576040805160e560020a62461bcd0281526020600482015260226024820152600080516020610abd833981519152604482015260f160020a6137b702606482015290519081900360840190fd5b61021b82610706565b1515610297576040805160e560020a62461bcd02815260206004820152602160248201527f476976656e2061646472657373206973206e6f74206120746f6c6c20626f6f7460448201527f6800000000000000000000000000000000000000000000000000000000000000606482015290519081900360840190fd5b600160a060020a038216600081815260016020526040808220805460ff191690555133917f5b34220b1e6888774f5c1badf295633d5d8d4ae02d5e3019e422b3debfe8967891a3506001919050565b60008054600160a060020a03163314610345576040805160e560020a62461bcd0281526020600482015260226024820152600080516020610abd833981519152604482015260f160020a6137b702606482015290519081900360840190fd5b600160a060020a03821615156103a5576040805160e560020a62461bcd02815260206004820152601d60248201527f4e6577206f776e65722063616e6e6f7420626520302061646472657373000000604482015290519081900360640190fd5b600160a060020a03821633141561042c576040805160e560020a62461bcd02815260206004820152602760248201527f4e6577206f776e6572206d75737420626520646966666572656e74207468616e60448201527f2073656e64657200000000000000000000000000000000000000000000000000606482015290519081900360840190fd5b6000805473ffffffffffffffffffffffffffffffffffffffff1916600160a060020a038481169190911780835560405191169133917fa1d2149652d81eb35c360c115fc7ac594124cb1ea8a5a33e9a7f5768c62869fb9190a3506001919050565b60008054600160a060020a031633146104ec576040805160e560020a62461bcd0281526020600482015260226024820152600080516020610abd833981519152604482015260f160020a6137b702606482015290519081900360840190fd5b600160a060020a0382161515610572576040805160e560020a62461bcd02815260206004820152602260248201527f4e657720746f6c6c20626f6f746820616464726573732063616e6e6f7420626560448201527f2030000000000000000000000000000000000000000000000000000000000000606482015290519081900360840190fd5b61057b82610706565b156105d0576040805160e560020a62461bcd02815260206004820181905260248201527f4164647265737320697320616c7265616479206120746f6c6c20626f6f74682e604482015290519081900360640190fd5b600160a060020a0382166000818152600160208190526040808320805460ff19169092179091555133917fe8f587f6ae5ef5f7560b94b9369dd242c9de0588c328add1a785044abf837c6d91a3506001919050565b60006002600084846040516020018083600160a060020a0316600160a060020a03166c0100000000000000000000000002815260140182600160a060020a0316600160a060020a03166c01000000000000000000000000028152601401925050506040516020818303038152906040526040518082805190602001908083835b602083106106c45780518252601f1990920191602091820191016106a5565b51815160209384036101000a60001901801990921691161790526040805192909401829003909120865285019590955292909201600020549695505050505050565b600160a060020a031660009081526001602052604090205460ff1690565b600054600160a060020a031690565b600080548190600160a060020a03163314610794576040805160e560020a62461bcd0281526020600482015260226024820152600080516020610abd833981519152604482015260f160020a6137b702606482015290519081900360840190fd5b600160a060020a03858116908516141561081e576040805160e560020a62461bcd02815260206004820152603160248201527f416e20656e74727920626f6f746820616e64206578697420626f6f746820636160448201527f6e6e6f74206265207468652073616d6521000000000000000000000000000000606482015290519081900360840190fd5b600085600160a060020a03161180156108405750600084600160a060020a0316115b1515610896576040805160e560020a62461bcd02815260206004820152601e60248201527f45697468657220626f6f746873206973206120307820616464726573732e0000604482015290519081900360640190fd5b61089f85610706565b80156108af57506108af84610706565b151561092b576040805160e560020a62461bcd02815260206004820152602860248201527f456e74727920626f6f746820616e64206578697420626f6f7468206d7573742060448201527f626520746f6c6c21000000000000000000000000000000000000000000000000606482015290519081900360840190fd5b84846040516020018083600160a060020a0316600160a060020a03166c0100000000000000000000000002815260140182600160a060020a0316600160a060020a03166c01000000000000000000000000028152601401925050506040516020818303038152906040526040518082805190602001908083835b602083106109c45780518252601f1990920191602091820191016109a5565b51815160209384036101000a600019018019909216911617905260408051929094018290039091206000818152600290925292902054919450508514159150610a599050576040805160e560020a62461bcd02815260206004820152601c60248201527f5468657265206d7573742061206368616e676520696e20707269636500000000604482015290519081900360640190fd5b60008181526002602090815260409182902085905581518581529151600160a060020a03808816939089169233927f5b631b37e5dfb698eace7497bcae58e93fac69e007127739fc79109d99c583329281900390910190a450600194935050505056004f6e6c79206f776e65722063616e20706572666f726d20746869732061637469a165627a7a72305820d9f5a68bda4728028778e835fe526198d75658d5292e6f83f89eea8da24608390029",
  "source": "pragma solidity ^0.4.24;\n\nimport \"./Owned.sol\";\nimport \"./TollBoothHolder.sol\";\nimport \"./interfaces/RoutePriceHolderI.sol\";\n\n\ncontract RoutePriceHolder is TollBoothHolder, RoutePriceHolderI {\n\n    mapping (bytes32 => uint) internal priceHolders;\n    \n    event LogRoutePriceSet(address indexed sender, address indexed entryBooth, address indexed exitBooth, uint priceWeis);\n\n    constructor() public {}\n\n    function setRoutePrice(address _entryBooth, address _exitBooth, uint _priceWeis) public fromOwner returns(bool success) {\n        require(_entryBooth != _exitBooth, \"An entry booth and exit booth cannot be the same!\");\n        require(_entryBooth > 0x0 && _exitBooth > 0x0, \"Either booths is a 0x address.\");\n        require(isTollBooth(_entryBooth) && isTollBooth(_exitBooth), \"Entry booth and exit booth must be toll!\");\n        bytes32 addressesHashed = keccak256(abi.encodePacked(_entryBooth, _exitBooth));\n        require(priceHolders[addressesHashed] != _priceWeis, \"There must a change in price\");\n        priceHolders[addressesHashed] = _priceWeis;\n        emit LogRoutePriceSet(msg.sender, _entryBooth, _exitBooth, _priceWeis);\n        return true;\n    }\n\n    function getRoutePrice(address _entryBooth, address _exitBooth) public view returns(uint priceWeis) {\n        return priceHolders[keccak256(abi.encodePacked(_entryBooth, _exitBooth))];\n    }\n}\n",
  "sourcePath": "/Users/wojciechkalinski/workspace-oracle-exam2/wojkal-code/contracts/RoutePriceHolder.sol",
  "compiler": {
    "name": "solc",
    "version": "0.4.25+commit.59dbf8f1.Emscripten.clang"
  },
  "schemaVersion": "3.0.0-beta.2",
  "updatedAt": "2019-04-28T16:00:27.710Z",
  "devdoc": {
    "methods": {}
  },
  "userdoc": {
    "methods": {}
  }
}