{
  "contractName": "TollBoothOperator",
  "abi": [
    {
      "constant": false,
      "inputs": [
        {
          "name": "_tollBooth",
          "type": "address"
        }
      ],
      "name": "removeTollBooth",
      "outputs": [
        {
          "name": "success",
          "type": "bool"
        }
      ],
      "payable": false,
      "stateMutability": "nonpayable",
      "type": "function",
      "signature": "0x0bbbcbb2"
    },
    {
      "constant": false,
      "inputs": [
        {
          "name": "_newOwner",
          "type": "address"
        }
      ],
      "name": "setOwner",
      "outputs": [
        {
          "name": "",
          "type": "bool"
        }
      ],
      "payable": false,
      "stateMutability": "nonpayable",
      "type": "function",
      "signature": "0x13af4035"
    },
    {
      "constant": false,
      "inputs": [
        {
          "name": "_state",
          "type": "bool"
        }
      ],
      "name": "setPaused",
      "outputs": [
        {
          "name": "",
          "type": "bool"
        }
      ],
      "payable": false,
      "stateMutability": "nonpayable",
      "type": "function",
      "signature": "0x16c38b3c"
    },
    {
      "constant": false,
      "inputs": [
        {
          "name": "_tollBooth",
          "type": "address"
        }
      ],
      "name": "addTollBooth",
      "outputs": [
        {
          "name": "success",
          "type": "bool"
        }
      ],
      "payable": false,
      "stateMutability": "nonpayable",
      "type": "function",
      "signature": "0x2c333eab"
    },
    {
      "constant": false,
      "inputs": [
        {
          "name": "_vehicleType",
          "type": "uint256"
        },
        {
          "name": "_newMultiplier",
          "type": "uint256"
        }
      ],
      "name": "setMultiplier",
      "outputs": [
        {
          "name": "success",
          "type": "bool"
        }
      ],
      "payable": false,
      "stateMutability": "nonpayable",
      "type": "function",
      "signature": "0x333271d0"
    },
    {
      "constant": true,
      "inputs": [
        {
          "name": "_entryBooth",
          "type": "address"
        },
        {
          "name": "_exitBooth",
          "type": "address"
        }
      ],
      "name": "getRoutePrice",
      "outputs": [
        {
          "name": "priceWeis",
          "type": "uint256"
        }
      ],
      "payable": false,
      "stateMutability": "view",
      "type": "function",
      "signature": "0x50295c67"
    },
    {
      "constant": true,
      "inputs": [
        {
          "name": "_tollBooth",
          "type": "address"
        }
      ],
      "name": "isTollBooth",
      "outputs": [
        {
          "name": "indeed",
          "type": "bool"
        }
      ],
      "payable": false,
      "stateMutability": "view",
      "type": "function",
      "signature": "0x50bb553a"
    },
    {
      "constant": true,
      "inputs": [],
      "name": "getOwner",
      "outputs": [
        {
          "name": "",
          "type": "address"
        }
      ],
      "payable": false,
      "stateMutability": "view",
      "type": "function",
      "signature": "0x893d20e8"
    },
    {
      "constant": true,
      "inputs": [
        {
          "name": "_vehicleType",
          "type": "uint256"
        }
      ],
      "name": "getMultiplier",
      "outputs": [
        {
          "name": "multiplier",
          "type": "uint256"
        }
      ],
      "payable": false,
      "stateMutability": "view",
      "type": "function",
      "signature": "0xadf8252d"
    },
    {
      "constant": true,
      "inputs": [],
      "name": "isPaused",
      "outputs": [
        {
          "name": "",
          "type": "bool"
        }
      ],
      "payable": false,
      "stateMutability": "view",
      "type": "function",
      "signature": "0xb187bd26"
    },
    {
      "constant": true,
      "inputs": [],
      "name": "getDeposit",
      "outputs": [
        {
          "name": "depositedWeis",
          "type": "uint256"
        }
      ],
      "payable": false,
      "stateMutability": "view",
      "type": "function",
      "signature": "0xc399ec88"
    },
    {
      "constant": false,
      "inputs": [
        {
          "name": "_newRegulator",
          "type": "address"
        }
      ],
      "name": "setRegulator",
      "outputs": [
        {
          "name": "",
          "type": "bool"
        }
      ],
      "payable": false,
      "stateMutability": "nonpayable",
      "type": "function",
      "signature": "0xcde0a4f8"
    },
    {
      "constant": false,
      "inputs": [
        {
          "name": "_depositWeis",
          "type": "uint256"
        }
      ],
      "name": "setDeposit",
      "outputs": [
        {
          "name": "success",
          "type": "bool"
        }
      ],
      "payable": false,
      "stateMutability": "nonpayable",
      "type": "function",
      "signature": "0xf5bade66"
    },
    {
      "constant": true,
      "inputs": [],
      "name": "getRegulator",
      "outputs": [
        {
          "name": "",
          "type": "address"
        }
      ],
      "payable": false,
      "stateMutability": "view",
      "type": "function",
      "signature": "0xf7e317f4"
    },
    {
      "inputs": [
        {
          "name": "_state",
          "type": "bool"
        },
        {
          "name": "_deposit",
          "type": "uint256"
        },
        {
          "name": "_regulator",
          "type": "address"
        }
      ],
      "payable": false,
      "stateMutability": "nonpayable",
      "type": "constructor",
      "signature": "constructor"
    },
    {
      "payable": true,
      "stateMutability": "payable",
      "type": "fallback"
    },
    {
      "anonymous": false,
      "inputs": [
        {
          "indexed": true,
          "name": "vehicle",
          "type": "address"
        },
        {
          "indexed": true,
          "name": "entryBooth",
          "type": "address"
        },
        {
          "indexed": true,
          "name": "exitSecretHashed",
          "type": "bytes32"
        },
        {
          "indexed": false,
          "name": "depositedWeis",
          "type": "uint256"
        }
      ],
      "name": "LogRoadEntered",
      "type": "event",
      "signature": "0x26213b556e4ae8dd63f1f81f4ea6181803d9a3efcad477cd84dcae45a264c30b"
    },
    {
      "anonymous": false,
      "inputs": [
        {
          "indexed": true,
          "name": "exitBooth",
          "type": "address"
        },
        {
          "indexed": true,
          "name": "exitSecretHashed",
          "type": "bytes32"
        },
        {
          "indexed": false,
          "name": "finalFee",
          "type": "uint256"
        },
        {
          "indexed": false,
          "name": "refundWeis",
          "type": "uint256"
        }
      ],
      "name": "LogRoadExited",
      "type": "event",
      "signature": "0xcc28c1c2c2269c01d739ef1a54d12784fe3052b2f228668ba5f4bc862ebe51bc"
    },
    {
      "anonymous": false,
      "inputs": [
        {
          "indexed": true,
          "name": "exitSecretHashed",
          "type": "bytes32"
        },
        {
          "indexed": true,
          "name": "entryBooth",
          "type": "address"
        },
        {
          "indexed": true,
          "name": "exitBooth",
          "type": "address"
        }
      ],
      "name": "LogPendingPayment",
      "type": "event",
      "signature": "0x739c4108960ded7f9e5e6790da2d3baebfb37959560441b5787b8c70676d873c"
    },
    {
      "anonymous": false,
      "inputs": [
        {
          "indexed": true,
          "name": "owner",
          "type": "address"
        },
        {
          "indexed": false,
          "name": "amount",
          "type": "uint256"
        }
      ],
      "name": "LogFeesCollected",
      "type": "event",
      "signature": "0x851c9440e522074225f247c12030d8a38be67fbda82238aac95d4a4454647f9d"
    },
    {
      "anonymous": false,
      "inputs": [
        {
          "indexed": true,
          "name": "previousRegulator",
          "type": "address"
        },
        {
          "indexed": true,
          "name": "newRegulator",
          "type": "address"
        }
      ],
      "name": "LogRegulatorSet",
      "type": "event",
      "signature": "0xa32c4b1f26f0d877f643f7fb9db131f9cebf04d120fe5ada74c0bdfc808dab83"
    },
    {
      "anonymous": false,
      "inputs": [
        {
          "indexed": true,
          "name": "sender",
          "type": "address"
        },
        {
          "indexed": true,
          "name": "entryBooth",
          "type": "address"
        },
        {
          "indexed": true,
          "name": "exitBooth",
          "type": "address"
        },
        {
          "indexed": false,
          "name": "priceWeis",
          "type": "uint256"
        }
      ],
      "name": "LogRoutePriceSet",
      "type": "event",
      "signature": "0x5b631b37e5dfb698eace7497bcae58e93fac69e007127739fc79109d99c58332"
    },
    {
      "anonymous": false,
      "inputs": [
        {
          "indexed": true,
          "name": "sender",
          "type": "address"
        },
        {
          "indexed": true,
          "name": "vehicleType",
          "type": "uint256"
        },
        {
          "indexed": false,
          "name": "multiplier",
          "type": "uint256"
        }
      ],
      "name": "LogMultiplierSet",
      "type": "event",
      "signature": "0x5e168e70d5925560e1407b68dc2495afbc25b36217cc6e4167b2cf3f28a46ef1"
    },
    {
      "anonymous": false,
      "inputs": [
        {
          "indexed": true,
          "name": "sender",
          "type": "address"
        },
        {
          "indexed": true,
          "name": "tollBooth",
          "type": "address"
        }
      ],
      "name": "LogTollBoothAdded",
      "type": "event",
      "signature": "0xe8f587f6ae5ef5f7560b94b9369dd242c9de0588c328add1a785044abf837c6d"
    },
    {
      "anonymous": false,
      "inputs": [
        {
          "indexed": true,
          "name": "sender",
          "type": "address"
        },
        {
          "indexed": true,
          "name": "tollBooth",
          "type": "address"
        }
      ],
      "name": "LogTollBoothRemoved",
      "type": "event",
      "signature": "0x5b34220b1e6888774f5c1badf295633d5d8d4ae02d5e3019e422b3debfe89678"
    },
    {
      "anonymous": false,
      "inputs": [
        {
          "indexed": true,
          "name": "sender",
          "type": "address"
        },
        {
          "indexed": false,
          "name": "amount",
          "type": "uint256"
        }
      ],
      "name": "LogDepositSet",
      "type": "event",
      "signature": "0xfa53ebd539f52eb4ef352ffacb2f8f5f8080cd8bb7ebb2f1acab3e1ce4bd65cb"
    },
    {
      "anonymous": false,
      "inputs": [
        {
          "indexed": true,
          "name": "_sender",
          "type": "address"
        },
        {
          "indexed": true,
          "name": "_newPausedState",
          "type": "bool"
        }
      ],
      "name": "LogPausedSet",
      "type": "event",
      "signature": "0xae0f86d9801b0bd39a2ce25d9fd1f202f2fd22e80150be4a99adb0275a635d6c"
    },
    {
      "anonymous": false,
      "inputs": [
        {
          "indexed": true,
          "name": "previousOwner",
          "type": "address"
        },
        {
          "indexed": true,
          "name": "newOwner",
          "type": "address"
        }
      ],
      "name": "LogOwnerSet",
      "type": "event",
      "signature": "0xa1d2149652d81eb35c360c115fc7ac594124cb1ea8a5a33e9a7f5768c62869fb"
    },
    {
      "constant": false,
      "inputs": [
        {
          "name": "_entryBooth",
          "type": "address"
        },
        {
          "name": "_exitSecretHashed",
          "type": "bytes32"
        }
      ],
      "name": "enterRoad",
      "outputs": [
        {
          "name": "success",
          "type": "bool"
        }
      ],
      "payable": true,
      "stateMutability": "payable",
      "type": "function",
      "signature": "0x954d4add"
    },
    {
      "constant": true,
      "inputs": [
        {
          "name": "_exitSecretHashed",
          "type": "bytes32"
        }
      ],
      "name": "getVehicleEntry",
      "outputs": [
        {
          "name": "vehicle",
          "type": "address"
        },
        {
          "name": "entryBooth",
          "type": "address"
        },
        {
          "name": "depositedWeis",
          "type": "uint256"
        }
      ],
      "payable": false,
      "stateMutability": "view",
      "type": "function",
      "signature": "0x7527b1ca"
    },
    {
      "constant": false,
      "inputs": [
        {
          "name": "_exitSecretClear",
          "type": "bytes32"
        }
      ],
      "name": "reportExitRoad",
      "outputs": [
        {
          "name": "status",
          "type": "uint256"
        }
      ],
      "payable": false,
      "stateMutability": "nonpayable",
      "type": "function",
      "signature": "0x39a87486"
    },
    {
      "constant": true,
      "inputs": [
        {
          "name": "entryBooth",
          "type": "address"
        },
        {
          "name": "exitBooth",
          "type": "address"
        }
      ],
      "name": "getPendingPaymentCount",
      "outputs": [
        {
          "name": "count",
          "type": "uint256"
        }
      ],
      "payable": false,
      "stateMutability": "view",
      "type": "function",
      "signature": "0xcb3c4cbc"
    },
    {
      "constant": false,
      "inputs": [
        {
          "name": "_entryBooth",
          "type": "address"
        },
        {
          "name": "_exitBooth",
          "type": "address"
        },
        {
          "name": "_count",
          "type": "uint256"
        }
      ],
      "name": "clearSomePendingPayments",
      "outputs": [
        {
          "name": "success",
          "type": "bool"
        }
      ],
      "payable": false,
      "stateMutability": "nonpayable",
      "type": "function",
      "signature": "0x226dfb42"
    },
    {
      "constant": false,
      "inputs": [
        {
          "name": "_entryBooth",
          "type": "address"
        },
        {
          "name": "_exitBooth",
          "type": "address"
        },
        {
          "name": "_priceWeis",
          "type": "uint256"
        }
      ],
      "name": "setRoutePrice",
      "outputs": [
        {
          "name": "success",
          "type": "bool"
        }
      ],
      "payable": false,
      "stateMutability": "nonpayable",
      "type": "function",
      "signature": "0xe23d7c5b"
    },
    {
      "constant": true,
      "inputs": [],
      "name": "getCollectedFeesAmount",
      "outputs": [
        {
          "name": "amount",
          "type": "uint256"
        }
      ],
      "payable": false,
      "stateMutability": "view",
      "type": "function",
      "signature": "0x99763af6"
    },
    {
      "constant": false,
      "inputs": [],
      "name": "withdrawCollectedFees",
      "outputs": [
        {
          "name": "success",
          "type": "bool"
        }
      ],
      "payable": false,
      "stateMutability": "nonpayable",
      "type": "function",
      "signature": "0xdd47050f"
    },
    {
      "constant": true,
      "inputs": [
        {
          "name": "_secret",
          "type": "bytes32"
        }
      ],
      "name": "hashSecret",
      "outputs": [
        {
          "name": "_hash",
          "type": "bytes32"
        }
      ],
      "payable": false,
      "stateMutability": "view",
      "type": "function",
      "signature": "0x552c1e55"
    }
  ],
  "bytecode": "0x608060405234801561001057600080fd5b506040516060806125d58339810160409081528151602083015191909201516000805433600160a060020a03199091161760a060020a60ff02191674010000000000000000000000000000000000000000851515021781558190839081116100d957604080517f08c379a000000000000000000000000000000000000000000000000000000000815260206004820181905260248201527f54686520696e697469616c206465706f7369742063616e6e6f7420626520302e604482015290519081900360640190fd5b600155600160a060020a038116151561015357604080517f08c379a000000000000000000000000000000000000000000000000000000000815260206004820152601860248201527f4e657720616464726573732063616e6e6f7420626520302e0000000000000000604482015290519081900360640190fd5b600580546000805460a060020a60ff0219167401000000000000000000000000000000000000000097151597909702969096178655600194909455600160a060020a0319938416600160a060020a039283161790931691161790556124179081906101be90396000f3006080604052600436106101325763ffffffff7c01000000000000000000000000000000000000000000000000000000006000350416630bbbcbb2811461013757806313af40351461016c57806316c38b3c1461018d578063226dfb42146101a75780632c333eab146101d1578063333271d0146101f257806339a874861461020d57806350295c671461023757806350bb553a1461025e578063552c1e551461027f5780637527b1ca14610297578063893d20e8146102d9578063954d4add1461030a57806399763af614610321578063adf8252d14610336578063b187bd261461034e578063c399ec8814610363578063cb3c4cbc14610378578063cde0a4f81461039f578063dd47050f146103c0578063e23d7c5b146103d5578063f5bade66146103ff578063f7e317f414610417575b600080fd5b34801561014357600080fd5b50610158600160a060020a036004351661042c565b604080519115158252519081900360200190f35b34801561017857600080fd5b50610158600160a060020a036004351661055f565b34801561019957600080fd5b506101586004351515610706565b3480156101b357600080fd5b50610158600160a060020a0360043581169060243516604435610875565b3480156101dd57600080fd5b50610158600160a060020a0360043516610b63565b3480156101fe57600080fd5b50610158600435602435610cf8565b34801561021957600080fd5b50610225600435610e8d565b60408051918252519081900360200190f35b34801561024357600080fd5b50610225600160a060020a03600435811690602435166113df565b34801561026a57600080fd5b50610158600160a060020a03600435166114ae565b34801561028b57600080fd5b506102256004356114cc565b3480156102a357600080fd5b506102af600435611549565b60408051600160a060020a0394851681529290931660208301528183015290519081900360600190f35b3480156102e557600080fd5b506102ee611578565b60408051600160a060020a039092168252519081900360200190f35b610158600160a060020a0360043516602435611587565b34801561032d57600080fd5b50610225611936565b34801561034257600080fd5b5061022560043561193c565b34801561035a57600080fd5b5061015861194e565b34801561036f57600080fd5b5061022561196f565b34801561038457600080fd5b50610225600160a060020a0360043581169060243516611975565b3480156103ab57600080fd5b50610158600160a060020a0360043516611a01565b3480156103cc57600080fd5b50610158611be3565b3480156103e157600080fd5b50610158600160a060020a0360043581169060243516604435611c70565b34801561040b57600080fd5b50610158600435611dc8565b34801561042357600080fd5b506102ee611f67565b60008054600160a060020a0316331461048b576040805160e560020a62461bcd02815260206004820152602260248201526000805160206123cc833981519152604482015260f160020a6137b702606482015290519081900360840190fd5b610494826114ae565b1515610510576040805160e560020a62461bcd02815260206004820152602160248201527f476976656e2061646472657373206973206e6f74206120746f6c6c20626f6f7460448201527f6800000000000000000000000000000000000000000000000000000000000000606482015290519081900360840190fd5b600160a060020a038216600081815260026020526040808220805460ff191690555133917f5b34220b1e6888774f5c1badf295633d5d8d4ae02d5e3019e422b3debfe8967891a3506001919050565b60008054600160a060020a031633146105be576040805160e560020a62461bcd02815260206004820152602260248201526000805160206123cc833981519152604482015260f160020a6137b702606482015290519081900360840190fd5b600160a060020a038216151561061e576040805160e560020a62461bcd02815260206004820152601d60248201527f4e6577206f776e65722063616e6e6f7420626520302061646472657373000000604482015290519081900360640190fd5b600160a060020a0382163314156106a5576040805160e560020a62461bcd02815260206004820152602760248201527f4e6577206f776e6572206d75737420626520646966666572656e74207468616e60448201527f2073656e64657200000000000000000000000000000000000000000000000000606482015290519081900360840190fd5b6000805473ffffffffffffffffffffffffffffffffffffffff1916600160a060020a038481169190911780835560405191169133917fa1d2149652d81eb35c360c115fc7ac594124cb1ea8a5a33e9a7f5768c62869fb9190a3506001919050565b60008054600160a060020a03163314610765576040805160e560020a62461bcd02815260206004820152602260248201526000805160206123cc833981519152604482015260f160020a6137b702606482015290519081900360840190fd5b60005474010000000000000000000000000000000000000000900460ff1615158215151415610804576040805160e560020a62461bcd02815260206004820152602d60248201527f4e6577207374617465206d75737420626520646966666572656e74207468616e60448201527f2063757272656e74206f6e652e00000000000000000000000000000000000000606482015290519081900360840190fd5b6000805474ff0000000000000000000000000000000000000000191674010000000000000000000000000000000000000000841515908102919091178255604051909133917fae0f86d9801b0bd39a2ce25d9fd1f202f2fd22e80150be4a99adb0275a635d6c9190a3506001919050565b60008060008060008060008060008060149054906101000a900460ff161515156108e9576040805160e560020a62461bcd02815260206004820152601360248201527f4d757374206e6f74206265207061757365642e00000000000000000000000000604482015290519081900360640190fd5b60008a11610941576040805160e560020a62461bcd02815260206004820152601c60248201527f436f756e74206d75737420626520626967676572207468616e20302100000000604482015290519081900360640190fd5b8b8b6040516020018083600160a060020a0316600160a060020a0316606060020a02815260140182600160a060020a0316600160a060020a0316606060020a028152601401925050506040516020818303038152906040526040518082805190602001908083835b602083106109c85780518252601f1990920191602091820191016109a9565b51815160209384036101000a600019018019909216911617905260408051929094018290039091206000818152600490925292812054929c50919a50508911159150610b51905057600088815260076020526040902080549096508a1115610aa0576040805160e560020a62461bcd02815260206004820152602f60248201527f50656e64696e67207061796d656e74206d75737420626520626967676572207460448201527f68616e20676976656e20636f756e740000000000000000000000000000000000606482015290519081900360840190fd5b600094505b89851015610b5157600186015460008181526002880160205260409020549094509250610ad28388611f76565b60008681526002890160209081526040808320929092558954600019018a5560018a810180549091019055815183815290810184905281519395509193508592600160a060020a038f16927fcc28c1c2c2269c01d739ef1a54d12784fe3052b2f228668ba5f4bc862ebe51bc92908290030190a3600190940193610aa5565b5060019b9a5050505050505050505050565b60008054600160a060020a03163314610bc2576040805160e560020a62461bcd02815260206004820152602260248201526000805160206123cc833981519152604482015260f160020a6137b702606482015290519081900360840190fd5b600160a060020a0382161515610c48576040805160e560020a62461bcd02815260206004820152602260248201527f4e657720746f6c6c20626f6f746820616464726573732063616e6e6f7420626560448201527f2030000000000000000000000000000000000000000000000000000000000000606482015290519081900360840190fd5b610c51826114ae565b15610ca6576040805160e560020a62461bcd02815260206004820181905260248201527f4164647265737320697320616c7265616479206120746f6c6c20626f6f74682e604482015290519081900360640190fd5b600160a060020a038216600081815260026020526040808220805460ff191660011790555133917fe8f587f6ae5ef5f7560b94b9369dd242c9de0588c328add1a785044abf837c6d91a3506001919050565b60008054600160a060020a03163314610d57576040805160e560020a62461bcd02815260206004820152602260248201526000805160206123cc833981519152604482015260f160020a6137b702606482015290519081900360840190fd5b60008311610daf576040805160e560020a62461bcd02815260206004820152601860248201527f56656869636c6520747970652063616e6e6f7420626520300000000000000000604482015290519081900360640190fd5b600083815260036020526040902054821415610e3b576040805160e560020a62461bcd02815260206004820152603260248201527f4e6577206d756c7469706c696572206d75737420626520646966666572656e7460448201527f207468616e2063757272656e74206f6e652e0000000000000000000000000000606482015290519081900360840190fd5b60008381526003602090815260409182902084905581518481529151859233927f5e168e70d5925560e1407b68dc2495afbc25b36217cc6e4167b2cf3f28a46ef192918290030190a350600192915050565b600080600080600080600080600060149054906101000a900460ff16151515610f00576040805160e560020a62461bcd02815260206004820152601360248201527f4d757374206e6f74206265207061757365642e00000000000000000000000000604482015290519081900360640190fd5b610f09336114ae565b1515610f5f576040805160e560020a62461bcd02815260206004820152601b60248201527f53656e6465722068617320746f20626520746f6c6c20626f6f74680000000000604482015290519081900360640190fd5b610f68896114cc565b600081815260066020526040902054909750600160a060020a031615801590610fa1575060008781526006602052604090206003015415155b151561101d576040805160e560020a62461bcd02815260206004820152603a60248201527f4e6569746865722076656869636c652063616e6e6f74206265203020616e642060448201527f6465706f736974656420776569732063616e6e6f742062652030000000000000606482015290519081900360840190fd5b60008781526006602052604081209650611035611f67565b8754604080517f028e7768000000000000000000000000000000000000000000000000000000008152600160a060020a0392831660048201529051929091169163028e7768916024808201926020929091908290030181600087803b15801561109d57600080fd5b505af11580156110b1573d6000803e3d6000fd5b505050506040513d60208110156110c757600080fd5b50511161111e576040805160e560020a62461bcd02815260206004820152601960248201527f56656869636c6520747970652063616e6e6f7420626520302e00000000000000604482015290519081900360640190fd5b6002860154600160a060020a03163314156111a9576040805160e560020a62461bcd02815260206004820152602a60248201527f456e74727920626f6f74682063616e6e6f7420626520612073656e646572206f60448201527f6620636f6e747261637400000000000000000000000000000000000000000000606482015290519081900360840190fd5b600286015460408051606060020a600160a060020a039093168302602080830191909152339390930260348201528151602881830301815260489091019182905280516004936000939182918401908083835b6020831061121b5780518252601f1990920191602091820191016111fc565b6001836020036101000a03801982511681845116808217855250505050505090500191505060405180910390206000191660001916815260200190815260200160002054945060008511156112c0576112748786611f76565b60408051828152602081018490528151939750919550899233927fcc28c1c2c2269c01d739ef1a54d12784fe3052b2f228668ba5f4bc862ebe51bc92908290030190a3600197506113d3565b600286015460408051606060020a600160a060020a039093168302602080830191909152339390930260348201528151602881830301815260489091019182905280516007936000939182918401908083835b602083106113325780518252601f199092019160209182019101611313565b51815160001960209485036101000a01908116901991909116179052604080519490920184900390932086528583019690965250928401600090812060018181015482540180845260028084019097528784208f905582549091018255948c015495519097509395503394600160a060020a0316938c93507f739c4108960ded7f9e5e6790da2d3baebfb37959560441b5787b8c70676d873c9250a4600297505b50505050505050919050565b60006004600084846040516020018083600160a060020a0316600160a060020a0316606060020a02815260140182600160a060020a0316600160a060020a0316606060020a028152601401925050506040516020818303038152906040526040518082805190602001908083835b6020831061146c5780518252601f19909201916020918201910161144d565b51815160209384036101000a60001901801990921691161790526040805192909401829003909120865285019590955292909201600020549695505050505050565b600160a060020a031660009081526002602052604090205460ff1690565b604080516020808201849052825180830382018152918301928390528151600093918291908401908083835b602083106115175780518252601f1990920191602091820191016114f8565b5181516020939093036101000a6000190180199091169216919091179052604051920182900390912095945050505050565b600090815260066020526040902080546002820154600390920154600160a060020a0391821693919092169190565b600054600160a060020a031690565b600080548190819074010000000000000000000000000000000000000000900460ff16156115ff576040805160e560020a62461bcd02815260206004820152601360248201527f4d757374206e6f74206265207061757365642e00000000000000000000000000604482015290519081900360640190fd5b611608856114ae565b151561165e576040805160e560020a62461bcd02815260206004820152601e60248201527f456e74727920626f6f7468206d75737420626520746f6c6c20626f6f74680000604482015290519081900360640190fd5b600084815260066020526040902054600160a060020a0316156116cb576040805160e560020a62461bcd02815260206004820152601460248201527f56656869636c652063616e6e6f7420626520302e000000000000000000000000604482015290519081900360640190fd5b6116d3611f67565b91506003600083600160a060020a031663028e7768336040518263ffffffff167c01000000000000000000000000000000000000000000000000000000000281526004018082600160a060020a0316600160a060020a03168152602001915050602060405180830381600087803b15801561174d57600080fd5b505af1158015611761573d6000803e3d6000fd5b505050506040513d602081101561177757600080fd5b5051815260208101919091526040016000908120549150811161180a576040805160e560020a62461bcd02815260206004820152602860248201527f56656869636c65206d756c7469706c696572206d75737420626520626967676560448201527f72207468616e2030000000000000000000000000000000000000000000000000606482015290519081900360840190fd5b60015461181d908263ffffffff61201b16565b341015611874576040805160e560020a62461bcd02815260206004820181905260248201527f4465706f736974206d75737420626520626967676572206f7220657175616c21604482015290519081900360640190fd5b60408051608081018252338082526020808301858152600160a060020a038a8116858701818152346060880181815260008e8152600688528a90209851895490861673ffffffffffffffffffffffffffffffffffffffff19918216178a55955160018a015591516002890180549190951695169490941790925590516003909501949094558451908152935188947f26213b556e4ae8dd63f1f81f4ea6181803d9a3efcad477cd84dcae45a264c30b92908290030190a4506001949350505050565b60085490565b60009081526003602052604090205490565b60005474010000000000000000000000000000000000000000900460ff1690565b60015490565b60006007600084846040516020018083600160a060020a0316600160a060020a0316606060020a02815260140182600160a060020a0316600160a060020a0316606060020a028152601401925050506040516020818303038152906040526040518082805190602001908083836020831061146c5780518252601f19909201916020918201910161144d565b6000600160a060020a0382161515611a63576040805160e560020a62461bcd02815260206004820152601860248201527f4e657720616464726573732063616e6e6f7420626520302e0000000000000000604482015290519081900360640190fd5b600554600160a060020a0383811691161415611aef576040805160e560020a62461bcd02815260206004820152602b60248201527f4e657720726567756c61746f722063616e6e6f74206265207468652073616d6560448201527f20726567756c61746f722e000000000000000000000000000000000000000000606482015290519081900360840190fd5b600554600160a060020a03163314611b77576040805160e560020a62461bcd02815260206004820152602660248201527f53656e646572206d757374206265206120726567756c61746f72206f6620636f60448201527f6e74726163740000000000000000000000000000000000000000000000000000606482015290519081900360840190fd5b600554604051600160a060020a038085169216907fa32c4b1f26f0d877f643f7fb9db131f9cebf04d120fe5ada74c0bdfc808dab8390600090a35060058054600160a060020a03831673ffffffffffffffffffffffffffffffffffffffff199091161790556001919050565b600880546000918290558154604051600160a060020a039091169082156108fc0290839085818181858888f19350505050158015611c25573d6000803e3d6000fd5b50600054604080518381529051600160a060020a03909216917f851c9440e522074225f247c12030d8a38be67fbda82238aac95d4a4454647f9d9181900360200190a2600191505090565b6000805481908190600160a060020a03163314611cd3576040805160e560020a62461bcd02815260206004820152602260248201526000805160206123cc833981519152604482015260f160020a6137b702606482015290519081900360840190fd5b611cde868686612054565b5085856040516020018083600160a060020a0316600160a060020a0316606060020a02815260140182600160a060020a0316600160a060020a0316606060020a028152601401925050506040516020818303038152906040526040518082805190602001908083835b60208310611d665780518252601f199092019160209182019101611d47565b51815160209384036101000a600019018019909216911617905260408051929094018290039091206000818152600790925292812054929650919450508311159150611dbc905057611dba86866001610875565b505b50600195945050505050565b60008054600160a060020a03163314611e27576040805160e560020a62461bcd02815260206004820152602260248201526000805160206123cc833981519152604482015260f160020a6137b702606482015290519081900360840190fd5b60008211611ea4576040805160e560020a62461bcd028152602060048201526024808201527f4465706f73697465642077656973206d7573742062652062696767657220746860448201527f616e203000000000000000000000000000000000000000000000000000000000606482015290519081900360840190fd5b600154821415611f24576040805160e560020a62461bcd02815260206004820152602d60248201527f4e6577206465706f736974206973206e6f20646966666572656e74207468616e60448201527f2063757272656e74206f6e652e00000000000000000000000000000000000000606482015290519081900360840190fd5b600182905560408051838152905133917ffa53ebd539f52eb4ef352ffacb2f8f5f8080cd8bb7ebb2f1acab3e1ce4bd65cb919081900360200190a2506001919050565b600554600160a060020a031690565b6000828152600660205260408120600181015482919082908190611fa190879063ffffffff61201b16565b91508260030154905080821115611fbb5760009450611fc1565b81810394505b600880548683039081019091556000600385018190558454604051929650600160a060020a03169187156108fc0291889190818181858888f19350505050158015612010573d6000803e3d6000fd5b505050509250929050565b60008083151561202e576000915061204d565b5082820282848281151561203e57fe5b041461204957600080fd5b8091505b5092915050565b600080548190600160a060020a031633146120b5576040805160e560020a62461bcd02815260206004820152602260248201526000805160206123cc833981519152604482015260f160020a6137b702606482015290519081900360840190fd5b600160a060020a03858116908516141561213f576040805160e560020a62461bcd02815260206004820152603160248201527f416e20656e74727920626f6f746820616e64206578697420626f6f746820636160448201527f6e6e6f74206265207468652073616d6521000000000000000000000000000000606482015290519081900360840190fd5b600085600160a060020a03161180156121615750600084600160a060020a0316115b15156121b7576040805160e560020a62461bcd02815260206004820152601e60248201527f45697468657220626f6f746873206973206120307820616464726573732e0000604482015290519081900360640190fd5b6121c0856114ae565b80156121d057506121d0846114ae565b151561224c576040805160e560020a62461bcd02815260206004820152602860248201527f456e74727920626f6f746820616e64206578697420626f6f7468206d7573742060448201527f626520746f6c6c21000000000000000000000000000000000000000000000000606482015290519081900360840190fd5b84846040516020018083600160a060020a0316600160a060020a0316606060020a02815260140182600160a060020a0316600160a060020a0316606060020a028152601401925050506040516020818303038152906040526040518082805190602001908083835b602083106122d35780518252601f1990920191602091820191016122b4565b51815160209384036101000a6000190180199092169116179052604080519290940182900390912060008181526004909252929020549194505085141591506123689050576040805160e560020a62461bcd02815260206004820152601c60248201527f5468657265206d7573742061206368616e676520696e20707269636500000000604482015290519081900360640190fd5b60008181526004602090815260409182902085905581518581529151600160a060020a03808816939089169233927f5b631b37e5dfb698eace7497bcae58e93fac69e007127739fc79109d99c583329281900390910190a450600194935050505056004f6e6c79206f776e65722063616e20706572666f726d20746869732061637469a165627a7a723058204f6a313ebbaedb23bfaabca5a4eb60ff9c156c29ac55c5df68f176b5586d89880029",
  "source": "pragma solidity ^0.4.24;\n\nimport \"./Owned.sol\";\nimport \"./Pausable.sol\";\nimport \"./Regulated.sol\";\nimport \"./MultiplierHolder.sol\";\nimport \"./DepositHolder.sol\";\nimport \"./RoutePriceHolder.sol\";\nimport \"./interfaces/TollBoothOperatorI.sol\";\nimport \"./Regulator.sol\";\nimport \"./TollBoothHolder.sol\";\nimport \"./SafeMath.sol\";\n\ncontract TollBoothOperator is Owned, Pausable, DepositHolder, TollBoothHolder,\nMultiplierHolder, RoutePriceHolder, Regulated, TollBoothOperatorI {\n\n    using SafeMath for uint;\n\n    struct Entry {\n        address vehicle;\n        uint multiplier;\n        address entryBooth;\n        uint depositedWeis;\n    }\n\n    struct RouteMetadata {\n        uint pendingPaymentCount;\n        uint clearedPaymentCount;\n        mapping(uint => bytes32) pendingPayments;\n    }\n\n    mapping(bytes32 => Entry) internal entries;\n\n    mapping(bytes32 => RouteMetadata) internal routesMetadata;\n\n    uint internal collectedFees;\n\n    event LogRoadEntered(address indexed vehicle, address indexed entryBooth, bytes32 indexed exitSecretHashed, uint depositedWeis);\n    event LogRoadExited(address indexed exitBooth, bytes32 indexed exitSecretHashed, uint finalFee, uint refundWeis);\n    event LogPendingPayment(bytes32 indexed exitSecretHashed, address indexed entryBooth, address indexed exitBooth);\n    event LogFeesCollected(address indexed owner, uint amount);\n    \n    constructor(bool _state, uint _deposit, address _regulator)\n    public \n    Pausable(_state) \n    DepositHolder(_deposit)\n    Regulated(_regulator) { \n        paused = _state;\n        deposit = _deposit;\n        regulator = _regulator;\n    }\n\n    function () public payable {\n        revert();\n    }\n\n    function enterRoad(address _entryBooth, bytes32 _exitSecretHashed) public payable whenNotPaused returns (bool success) {\n        require(isTollBooth(_entryBooth), \"Entry booth must be toll booth\");\n        require(entries[_exitSecretHashed].vehicle == 0x0, \"Vehicle cannot be 0.\");\n        Regulator roadRegulator = Regulator(getRegulator());\n        uint vehicleMultiplier = multipliers[roadRegulator.vehicles(msg.sender)];\n        require(vehicleMultiplier > 0, \"Vehicle multiplier must be bigger than 0\");\n        require(msg.value >= deposit.mul(vehicleMultiplier), \"Deposit must be bigger or equal!\");\n        entries[_exitSecretHashed] = Entry(msg.sender, vehicleMultiplier, _entryBooth, msg.value);\n        emit LogRoadEntered(msg.sender, _entryBooth, _exitSecretHashed, msg.value);\n        return true;\n    }\n\n    function getVehicleEntry(bytes32 _exitSecretHashed) public view returns(address vehicle, address entryBooth, uint depositedWeis) {\n        Entry storage entry = entries[_exitSecretHashed];\n        return (entry.vehicle, entry.entryBooth, entry.depositedWeis);\n    }\n\n    function reportExitRoad(bytes32 _exitSecretClear) public whenNotPaused returns(uint status) {\n        require(isTollBooth(msg.sender), \"Sender has to be toll booth\");\n        bytes32 exitSecretHashed = hashSecret(_exitSecretClear);\n        require(entries[exitSecretHashed].vehicle != 0x0 && entries[exitSecretHashed].depositedWeis != 0, \"Neither vehicle cannot be 0 and deposited weis cannot be 0\");\n        Entry storage entry = entries[exitSecretHashed];\n        require(Regulator(getRegulator()).vehicles(entry.vehicle) > 0, \"Vehicle type cannot be 0.\");\n        require(entry.entryBooth != msg.sender, \"Entry booth cannot be a sender of contract\");\n        uint price = priceHolders[keccak256(abi.encodePacked(entry.entryBooth, msg.sender))];\n        if (price > 0) {\n            uint refund;\n            uint finalFee;\n            (refund, finalFee) = executePayment(exitSecretHashed, price);\n            emit LogRoadExited(msg.sender, exitSecretHashed, finalFee, refund);\n            return 1;\n        } else {\n            RouteMetadata storage metadata = routesMetadata[keccak256(abi.encodePacked(entry.entryBooth, msg.sender))];\n            uint index = metadata.pendingPaymentCount + metadata.clearedPaymentCount;\n            metadata.pendingPayments[index] = exitSecretHashed;\n            metadata.pendingPaymentCount++;\n            emit LogPendingPayment(exitSecretHashed, entry.entryBooth, msg.sender);\n            return 2;\n        }\n    }\n    \n    function getPendingPaymentCount(address entryBooth, address exitBooth) public view returns (uint count) {\n        return routesMetadata[keccak256(abi.encodePacked(entryBooth, exitBooth))].pendingPaymentCount;\n    }\n\n    function clearSomePendingPayments(address _entryBooth, address _exitBooth, uint _count) public whenNotPaused returns (bool success) {\n        require(_count > 0, \"Count must be bigger than 0!\");\n        bytes32 _hash = keccak256(abi.encodePacked(_entryBooth, _exitBooth));\n        uint routePrice = priceHolders[_hash];\n        if (routePrice > 0) {\n            RouteMetadata storage routeMetadata = routesMetadata[_hash];\n            require(routeMetadata.pendingPaymentCount >= _count, \"Pending payment must be bigger than given count\");\n            for (uint i = 0; i < _count; i++) {\n                uint paymentIndex = routeMetadata.clearedPaymentCount;\n                bytes32 exitSecretHashed = routeMetadata.pendingPayments[paymentIndex];\n                uint refund;\n                uint finalFee;\n                (refund, finalFee) = executePayment(exitSecretHashed, routePrice);\n                routeMetadata.pendingPayments[paymentIndex] = bytes32(0);\n                routeMetadata.pendingPaymentCount--;\n                routeMetadata.clearedPaymentCount++;\n                emit LogRoadExited(_exitBooth, exitSecretHashed, finalFee, refund);\n            }\n        }\n        return true;\n    }\n\n    function setRoutePrice(address _entryBooth, address _exitBooth, uint _priceWeis) public fromOwner returns(bool success) {\n        super.setRoutePrice(_entryBooth, _exitBooth, _priceWeis);\n        bytes32 bootsHashed = keccak256(abi.encodePacked(_entryBooth, _exitBooth));\n        uint pendingPaymentCount = routesMetadata[bootsHashed].pendingPaymentCount;\n        if (pendingPaymentCount > 0) {\n            clearSomePendingPayments(_entryBooth, _exitBooth, 1);\n        }\n        return true;\n    }\n\n    function getCollectedFeesAmount() public view returns(uint amount) {\n        return collectedFees;\n    }\n\n    function withdrawCollectedFees() public returns(bool success) {\n        uint collected = collectedFees;\n        collectedFees = 0;\n        owner.transfer(collected);\n        emit LogFeesCollected(owner, collected);\n        return true;\n    }\n\n    function hashSecret(bytes32 _secret) public view returns(bytes32 _hash) {\n        return keccak256(abi.encodePacked(_secret));\n    }\n\n    function executePayment(bytes32 _exitSecretHashed, uint _routePrice) private returns(uint refund, uint finalFee) {\n        Entry storage entry = entries[_exitSecretHashed];\n        uint vehiclePrice = _routePrice.mul(entry.multiplier);\n        uint depositedWeis = entry.depositedWeis;\n        if (vehiclePrice > depositedWeis) {\n            refund = 0;\n        } else {\n            refund = depositedWeis - vehiclePrice;\n        }\n        finalFee = depositedWeis - refund;\n        collectedFees += finalFee;\n        entry.depositedWeis = 0;\n        entry.vehicle.transfer(refund);\n        return(refund, finalFee);\n    }\n}",
  "sourcePath": "/Users/wojciechkalinski/workspace-oracle-exam2/wojkal-code/contracts/TollBoothOperator.sol",
  "compiler": {
    "name": "solc",
    "version": "0.4.25+commit.59dbf8f1.Emscripten.clang"
  },
  "schemaVersion": "3.0.0-beta.2",
  "updatedAt": "2019-06-14T20:19:00.959Z",
  "devdoc": {
    "methods": {}
  },
  "userdoc": {
    "methods": {}
  }
}