{
  "contractName": "TollBoothHolder",
  "abi": [
    {
      "constant": false,
      "inputs": [
        {
          "name": "_newOwner",
          "type": "address"
        }
      ],
      "name": "setOwner",
      "outputs": [
        {
          "name": "",
          "type": "bool"
        }
      ],
      "payable": false,
      "stateMutability": "nonpayable",
      "type": "function"
    },
    {
      "constant": true,
      "inputs": [],
      "name": "getOwner",
      "outputs": [
        {
          "name": "",
          "type": "address"
        }
      ],
      "payable": false,
      "stateMutability": "view",
      "type": "function"
    },
    {
      "inputs": [],
      "payable": false,
      "stateMutability": "nonpayable",
      "type": "constructor"
    },
    {
      "anonymous": false,
      "inputs": [
        {
          "indexed": true,
          "name": "sender",
          "type": "address"
        },
        {
          "indexed": true,
          "name": "tollBooth",
          "type": "address"
        }
      ],
      "name": "LogTollBoothAdded",
      "type": "event"
    },
    {
      "anonymous": false,
      "inputs": [
        {
          "indexed": true,
          "name": "sender",
          "type": "address"
        },
        {
          "indexed": true,
          "name": "tollBooth",
          "type": "address"
        }
      ],
      "name": "LogTollBoothRemoved",
      "type": "event"
    },
    {
      "anonymous": false,
      "inputs": [
        {
          "indexed": true,
          "name": "previousOwner",
          "type": "address"
        },
        {
          "indexed": true,
          "name": "newOwner",
          "type": "address"
        }
      ],
      "name": "LogOwnerSet",
      "type": "event"
    },
    {
      "constant": false,
      "inputs": [
        {
          "name": "_tollBooth",
          "type": "address"
        }
      ],
      "name": "addTollBooth",
      "outputs": [
        {
          "name": "success",
          "type": "bool"
        }
      ],
      "payable": false,
      "stateMutability": "nonpayable",
      "type": "function"
    },
    {
      "constant": true,
      "inputs": [
        {
          "name": "_tollBooth",
          "type": "address"
        }
      ],
      "name": "isTollBooth",
      "outputs": [
        {
          "name": "indeed",
          "type": "bool"
        }
      ],
      "payable": false,
      "stateMutability": "view",
      "type": "function"
    },
    {
      "constant": false,
      "inputs": [
        {
          "name": "_tollBooth",
          "type": "address"
        }
      ],
      "name": "removeTollBooth",
      "outputs": [
        {
          "name": "success",
          "type": "bool"
        }
      ],
      "payable": false,
      "stateMutability": "nonpayable",
      "type": "function"
    }
  ],
  "bytecode": "0x608060405234801561001057600080fd5b5060008054600160a060020a03191633179055610683806100326000396000f30060806040526004361061006c5763ffffffff7c01000000000000000000000000000000000000000000000000000000006000350416630bbbcbb2811461007157806313af4035146100a65780632c333eab146100c757806350bb553a146100e8578063893d20e814610109575b600080fd5b34801561007d57600080fd5b50610092600160a060020a036004351661013a565b604080519115158252519081900360200190f35b3480156100b257600080fd5b50610092600160a060020a0360043516610297565b3480156100d357600080fd5b50610092600160a060020a0360043516610468565b3480156100f457600080fd5b50610092600160a060020a036004351661062a565b34801561011557600080fd5b5061011e610648565b60408051600160a060020a039092168252519081900360200190f35b60008054600160a060020a031633146101c3576040805160e560020a62461bcd02815260206004820152602260248201527f4f6e6c79206f776e65722063616e20706572666f726d2074686973206163746960448201527f6f6e000000000000000000000000000000000000000000000000000000000000606482015290519081900360840190fd5b6101cc8261062a565b1515610248576040805160e560020a62461bcd02815260206004820152602160248201527f476976656e2061646472657373206973206e6f74206120746f6c6c20626f6f7460448201527f6800000000000000000000000000000000000000000000000000000000000000606482015290519081900360840190fd5b600160a060020a038216600081815260016020526040808220805460ff191690555133917f5b34220b1e6888774f5c1badf295633d5d8d4ae02d5e3019e422b3debfe8967891a3506001919050565b60008054600160a060020a03163314610320576040805160e560020a62461bcd02815260206004820152602260248201527f4f6e6c79206f776e65722063616e20706572666f726d2074686973206163746960448201527f6f6e000000000000000000000000000000000000000000000000000000000000606482015290519081900360840190fd5b600160a060020a0382161515610380576040805160e560020a62461bcd02815260206004820152601d60248201527f4e6577206f776e65722063616e6e6f7420626520302061646472657373000000604482015290519081900360640190fd5b600160a060020a038216331415610407576040805160e560020a62461bcd02815260206004820152602760248201527f4e6577206f776e6572206d75737420626520646966666572656e74207468616e60448201527f2073656e64657200000000000000000000000000000000000000000000000000606482015290519081900360840190fd5b6000805473ffffffffffffffffffffffffffffffffffffffff1916600160a060020a038481169190911780835560405191169133917fa1d2149652d81eb35c360c115fc7ac594124cb1ea8a5a33e9a7f5768c62869fb9190a3506001919050565b60008054600160a060020a031633146104f1576040805160e560020a62461bcd02815260206004820152602260248201527f4f6e6c79206f776e65722063616e20706572666f726d2074686973206163746960448201527f6f6e000000000000000000000000000000000000000000000000000000000000606482015290519081900360840190fd5b600160a060020a0382161515610577576040805160e560020a62461bcd02815260206004820152602260248201527f4e657720746f6c6c20626f6f746820616464726573732063616e6e6f7420626560448201527f2030000000000000000000000000000000000000000000000000000000000000606482015290519081900360840190fd5b6105808261062a565b156105d5576040805160e560020a62461bcd02815260206004820181905260248201527f4164647265737320697320616c7265616479206120746f6c6c20626f6f74682e604482015290519081900360640190fd5b600160a060020a0382166000818152600160208190526040808320805460ff19169092179091555133917fe8f587f6ae5ef5f7560b94b9369dd242c9de0588c328add1a785044abf837c6d91a3506001919050565b600160a060020a031660009081526001602052604090205460ff1690565b600054600160a060020a0316905600a165627a7a72305820370543bcaabef3c78fcf73661c8a90e719444bfd0dc3b5a77b372da28bc35eb40029",
  "source": "pragma solidity ^0.4.24;\n\nimport \"./Owned.sol\";\nimport \"./interfaces/TollBoothHolderI.sol\";\n\n\ncontract TollBoothHolder is Owned, TollBoothHolderI {\n\n    mapping(address => bool) internal tollBoothHolders;\n\n    event LogTollBoothAdded(address indexed sender, address indexed tollBooth);\n    event LogTollBoothRemoved(address indexed sender, address indexed tollBooth);\n\n    constructor() public {\n    }\n\n    function addTollBooth(address _tollBooth) public fromOwner returns (bool success) {\n        require(_tollBooth != 0x0, \"New toll booth address cannot be 0\");\n        require(!isTollBooth(_tollBooth), \"Address is already a toll booth.\");\n        tollBoothHolders[_tollBooth] = true;\n        emit LogTollBoothAdded(msg.sender, _tollBooth);\n        return true;\n    }\n\n    function isTollBooth(address _tollBooth) public view returns(bool indeed) {\n        return tollBoothHolders[_tollBooth];\n    }\n\n    function removeTollBooth(address _tollBooth) public fromOwner returns (bool success) {\n        require(isTollBooth(_tollBooth), \"Given address is not a toll booth\");            \n        delete tollBoothHolders[_tollBooth];\n        emit LogTollBoothRemoved(msg.sender, _tollBooth);\n        return true;\n    }\n}",
  "sourcePath": "/Users/wojciechkalinski/workspace-oracle-exam2/wojkal-code/contracts/TollBoothHolder.sol",
  "compiler": {
    "name": "solc",
    "version": "0.4.25+commit.59dbf8f1.Emscripten.clang"
  },
  "schemaVersion": "3.0.0-beta.2",
  "updatedAt": "2019-04-28T16:00:27.711Z",
  "devdoc": {
    "methods": {}
  },
  "userdoc": {
    "methods": {}
  }
}