{
  "contractName": "TollBoothOperator",
  "abi": [
    {
      "constant": false,
      "inputs": [
        {
          "name": "_tollBooth",
          "type": "address"
        }
      ],
      "name": "removeTollBooth",
      "outputs": [
        {
          "name": "success",
          "type": "bool"
        }
      ],
      "payable": false,
      "stateMutability": "nonpayable",
      "type": "function",
      "signature": "0x0bbbcbb2"
    },
    {
      "constant": false,
      "inputs": [
        {
          "name": "_newOwner",
          "type": "address"
        }
      ],
      "name": "setOwner",
      "outputs": [
        {
          "name": "",
          "type": "bool"
        }
      ],
      "payable": false,
      "stateMutability": "nonpayable",
      "type": "function",
      "signature": "0x13af4035"
    },
    {
      "constant": false,
      "inputs": [
        {
          "name": "_state",
          "type": "bool"
        }
      ],
      "name": "setPaused",
      "outputs": [
        {
          "name": "",
          "type": "bool"
        }
      ],
      "payable": false,
      "stateMutability": "nonpayable",
      "type": "function",
      "signature": "0x16c38b3c"
    },
    {
      "constant": false,
      "inputs": [
        {
          "name": "_tollBooth",
          "type": "address"
        }
      ],
      "name": "addTollBooth",
      "outputs": [
        {
          "name": "success",
          "type": "bool"
        }
      ],
      "payable": false,
      "stateMutability": "nonpayable",
      "type": "function",
      "signature": "0x2c333eab"
    },
    {
      "constant": false,
      "inputs": [
        {
          "name": "_vehicleType",
          "type": "uint256"
        },
        {
          "name": "_newMultiplier",
          "type": "uint256"
        }
      ],
      "name": "setMultiplier",
      "outputs": [
        {
          "name": "success",
          "type": "bool"
        }
      ],
      "payable": false,
      "stateMutability": "nonpayable",
      "type": "function",
      "signature": "0x333271d0"
    },
    {
      "constant": true,
      "inputs": [
        {
          "name": "_entryBooth",
          "type": "address"
        },
        {
          "name": "_exitBooth",
          "type": "address"
        }
      ],
      "name": "getRoutePrice",
      "outputs": [
        {
          "name": "priceWeis",
          "type": "uint256"
        }
      ],
      "payable": false,
      "stateMutability": "view",
      "type": "function",
      "signature": "0x50295c67"
    },
    {
      "constant": true,
      "inputs": [
        {
          "name": "_tollBooth",
          "type": "address"
        }
      ],
      "name": "isTollBooth",
      "outputs": [
        {
          "name": "indeed",
          "type": "bool"
        }
      ],
      "payable": false,
      "stateMutability": "view",
      "type": "function",
      "signature": "0x50bb553a"
    },
    {
      "constant": true,
      "inputs": [],
      "name": "getOwner",
      "outputs": [
        {
          "name": "",
          "type": "address"
        }
      ],
      "payable": false,
      "stateMutability": "view",
      "type": "function",
      "signature": "0x893d20e8"
    },
    {
      "constant": true,
      "inputs": [
        {
          "name": "_vehicleType",
          "type": "uint256"
        }
      ],
      "name": "getMultiplier",
      "outputs": [
        {
          "name": "multiplier",
          "type": "uint256"
        }
      ],
      "payable": false,
      "stateMutability": "view",
      "type": "function",
      "signature": "0xadf8252d"
    },
    {
      "constant": true,
      "inputs": [],
      "name": "isPaused",
      "outputs": [
        {
          "name": "",
          "type": "bool"
        }
      ],
      "payable": false,
      "stateMutability": "view",
      "type": "function",
      "signature": "0xb187bd26"
    },
    {
      "constant": true,
      "inputs": [],
      "name": "getDeposit",
      "outputs": [
        {
          "name": "depositedWeis",
          "type": "uint256"
        }
      ],
      "payable": false,
      "stateMutability": "view",
      "type": "function",
      "signature": "0xc399ec88"
    },
    {
      "constant": false,
      "inputs": [
        {
          "name": "_newRegulator",
          "type": "address"
        }
      ],
      "name": "setRegulator",
      "outputs": [
        {
          "name": "",
          "type": "bool"
        }
      ],
      "payable": false,
      "stateMutability": "nonpayable",
      "type": "function",
      "signature": "0xcde0a4f8"
    },
    {
      "constant": false,
      "inputs": [
        {
          "name": "_depositWeis",
          "type": "uint256"
        }
      ],
      "name": "setDeposit",
      "outputs": [
        {
          "name": "success",
          "type": "bool"
        }
      ],
      "payable": false,
      "stateMutability": "nonpayable",
      "type": "function",
      "signature": "0xf5bade66"
    },
    {
      "constant": true,
      "inputs": [],
      "name": "getRegulator",
      "outputs": [
        {
          "name": "",
          "type": "address"
        }
      ],
      "payable": false,
      "stateMutability": "view",
      "type": "function",
      "signature": "0xf7e317f4"
    },
    {
      "inputs": [
        {
          "name": "_state",
          "type": "bool"
        },
        {
          "name": "_deposit",
          "type": "uint256"
        },
        {
          "name": "_regulator",
          "type": "address"
        }
      ],
      "payable": false,
      "stateMutability": "nonpayable",
      "type": "constructor"
    },
    {
      "payable": true,
      "stateMutability": "payable",
      "type": "fallback"
    },
    {
      "anonymous": false,
      "inputs": [
        {
          "indexed": true,
          "name": "vehicle",
          "type": "address"
        },
        {
          "indexed": true,
          "name": "entryBooth",
          "type": "address"
        },
        {
          "indexed": true,
          "name": "exitSecretHashed",
          "type": "bytes32"
        },
        {
          "indexed": false,
          "name": "depositedWeis",
          "type": "uint256"
        }
      ],
      "name": "LogRoadEntered",
      "type": "event",
      "signature": "0x26213b556e4ae8dd63f1f81f4ea6181803d9a3efcad477cd84dcae45a264c30b"
    },
    {
      "anonymous": false,
      "inputs": [
        {
          "indexed": true,
          "name": "exitBooth",
          "type": "address"
        },
        {
          "indexed": true,
          "name": "exitSecretHashed",
          "type": "bytes32"
        },
        {
          "indexed": false,
          "name": "finalFee",
          "type": "uint256"
        },
        {
          "indexed": false,
          "name": "refundWeis",
          "type": "uint256"
        }
      ],
      "name": "LogRoadExited",
      "type": "event",
      "signature": "0xcc28c1c2c2269c01d739ef1a54d12784fe3052b2f228668ba5f4bc862ebe51bc"
    },
    {
      "anonymous": false,
      "inputs": [
        {
          "indexed": true,
          "name": "exitSecretHashed",
          "type": "bytes32"
        },
        {
          "indexed": true,
          "name": "entryBooth",
          "type": "address"
        },
        {
          "indexed": true,
          "name": "exitBooth",
          "type": "address"
        }
      ],
      "name": "LogPendingPayment",
      "type": "event",
      "signature": "0x739c4108960ded7f9e5e6790da2d3baebfb37959560441b5787b8c70676d873c"
    },
    {
      "anonymous": false,
      "inputs": [
        {
          "indexed": true,
          "name": "owner",
          "type": "address"
        },
        {
          "indexed": false,
          "name": "amount",
          "type": "uint256"
        }
      ],
      "name": "LogFeesCollected",
      "type": "event",
      "signature": "0x851c9440e522074225f247c12030d8a38be67fbda82238aac95d4a4454647f9d"
    },
    {
      "anonymous": false,
      "inputs": [
        {
          "indexed": true,
          "name": "previousRegulator",
          "type": "address"
        },
        {
          "indexed": true,
          "name": "newRegulator",
          "type": "address"
        }
      ],
      "name": "LogRegulatorSet",
      "type": "event",
      "signature": "0xa32c4b1f26f0d877f643f7fb9db131f9cebf04d120fe5ada74c0bdfc808dab83"
    },
    {
      "anonymous": false,
      "inputs": [
        {
          "indexed": true,
          "name": "sender",
          "type": "address"
        },
        {
          "indexed": true,
          "name": "entryBooth",
          "type": "address"
        },
        {
          "indexed": true,
          "name": "exitBooth",
          "type": "address"
        },
        {
          "indexed": false,
          "name": "priceWeis",
          "type": "uint256"
        }
      ],
      "name": "LogRoutePriceSet",
      "type": "event",
      "signature": "0x5b631b37e5dfb698eace7497bcae58e93fac69e007127739fc79109d99c58332"
    },
    {
      "anonymous": false,
      "inputs": [
        {
          "indexed": true,
          "name": "sender",
          "type": "address"
        },
        {
          "indexed": true,
          "name": "vehicleType",
          "type": "uint256"
        },
        {
          "indexed": false,
          "name": "multiplier",
          "type": "uint256"
        }
      ],
      "name": "LogMultiplierSet",
      "type": "event",
      "signature": "0x5e168e70d5925560e1407b68dc2495afbc25b36217cc6e4167b2cf3f28a46ef1"
    },
    {
      "anonymous": false,
      "inputs": [
        {
          "indexed": true,
          "name": "sender",
          "type": "address"
        },
        {
          "indexed": true,
          "name": "tollBooth",
          "type": "address"
        }
      ],
      "name": "LogTollBoothAdded",
      "type": "event",
      "signature": "0xe8f587f6ae5ef5f7560b94b9369dd242c9de0588c328add1a785044abf837c6d"
    },
    {
      "anonymous": false,
      "inputs": [
        {
          "indexed": true,
          "name": "sender",
          "type": "address"
        },
        {
          "indexed": true,
          "name": "tollBooth",
          "type": "address"
        }
      ],
      "name": "LogTollBoothRemoved",
      "type": "event",
      "signature": "0x5b34220b1e6888774f5c1badf295633d5d8d4ae02d5e3019e422b3debfe89678"
    },
    {
      "anonymous": false,
      "inputs": [
        {
          "indexed": true,
          "name": "sender",
          "type": "address"
        },
        {
          "indexed": false,
          "name": "amount",
          "type": "uint256"
        }
      ],
      "name": "LogDepositSet",
      "type": "event",
      "signature": "0xfa53ebd539f52eb4ef352ffacb2f8f5f8080cd8bb7ebb2f1acab3e1ce4bd65cb"
    },
    {
      "anonymous": false,
      "inputs": [
        {
          "indexed": true,
          "name": "_sender",
          "type": "address"
        },
        {
          "indexed": true,
          "name": "_newPausedState",
          "type": "bool"
        }
      ],
      "name": "LogPausedSet",
      "type": "event",
      "signature": "0xae0f86d9801b0bd39a2ce25d9fd1f202f2fd22e80150be4a99adb0275a635d6c"
    },
    {
      "anonymous": false,
      "inputs": [
        {
          "indexed": true,
          "name": "previousOwner",
          "type": "address"
        },
        {
          "indexed": true,
          "name": "newOwner",
          "type": "address"
        }
      ],
      "name": "LogOwnerSet",
      "type": "event",
      "signature": "0xa1d2149652d81eb35c360c115fc7ac594124cb1ea8a5a33e9a7f5768c62869fb"
    },
    {
      "constant": false,
      "inputs": [
        {
          "name": "_entryBooth",
          "type": "address"
        },
        {
          "name": "_exitSecretHashed",
          "type": "bytes32"
        }
      ],
      "name": "enterRoad",
      "outputs": [
        {
          "name": "success",
          "type": "bool"
        }
      ],
      "payable": true,
      "stateMutability": "payable",
      "type": "function",
      "signature": "0x954d4add"
    },
    {
      "constant": true,
      "inputs": [
        {
          "name": "_exitSecretHashed",
          "type": "bytes32"
        }
      ],
      "name": "getVehicleEntry",
      "outputs": [
        {
          "name": "vehicle",
          "type": "address"
        },
        {
          "name": "entryBooth",
          "type": "address"
        },
        {
          "name": "depositedWeis",
          "type": "uint256"
        }
      ],
      "payable": false,
      "stateMutability": "view",
      "type": "function",
      "signature": "0x7527b1ca"
    },
    {
      "constant": false,
      "inputs": [
        {
          "name": "_exitSecretClear",
          "type": "bytes32"
        }
      ],
      "name": "reportExitRoad",
      "outputs": [
        {
          "name": "status",
          "type": "uint256"
        }
      ],
      "payable": false,
      "stateMutability": "nonpayable",
      "type": "function",
      "signature": "0x39a87486"
    },
    {
      "constant": true,
      "inputs": [
        {
          "name": "entryBooth",
          "type": "address"
        },
        {
          "name": "exitBooth",
          "type": "address"
        }
      ],
      "name": "getPendingPaymentCount",
      "outputs": [
        {
          "name": "count",
          "type": "uint256"
        }
      ],
      "payable": false,
      "stateMutability": "view",
      "type": "function",
      "signature": "0xcb3c4cbc"
    },
    {
      "constant": false,
      "inputs": [
        {
          "name": "_entryBooth",
          "type": "address"
        },
        {
          "name": "_exitBooth",
          "type": "address"
        },
        {
          "name": "_count",
          "type": "uint256"
        }
      ],
      "name": "clearSomePendingPayments",
      "outputs": [
        {
          "name": "success",
          "type": "bool"
        }
      ],
      "payable": false,
      "stateMutability": "nonpayable",
      "type": "function",
      "signature": "0x226dfb42"
    },
    {
      "constant": false,
      "inputs": [
        {
          "name": "_entryBooth",
          "type": "address"
        },
        {
          "name": "_exitBooth",
          "type": "address"
        },
        {
          "name": "_priceWeis",
          "type": "uint256"
        }
      ],
      "name": "setRoutePrice",
      "outputs": [
        {
          "name": "success",
          "type": "bool"
        }
      ],
      "payable": false,
      "stateMutability": "nonpayable",
      "type": "function",
      "signature": "0xe23d7c5b"
    },
    {
      "constant": true,
      "inputs": [],
      "name": "getCollectedFeesAmount",
      "outputs": [
        {
          "name": "amount",
          "type": "uint256"
        }
      ],
      "payable": false,
      "stateMutability": "view",
      "type": "function",
      "signature": "0x99763af6"
    },
    {
      "constant": false,
      "inputs": [],
      "name": "withdrawCollectedFees",
      "outputs": [
        {
          "name": "success",
          "type": "bool"
        }
      ],
      "payable": false,
      "stateMutability": "nonpayable",
      "type": "function",
      "signature": "0xdd47050f"
    },
    {
      "constant": true,
      "inputs": [
        {
          "name": "_secret",
          "type": "bytes32"
        }
      ],
      "name": "hashSecret",
      "outputs": [
        {
          "name": "_hash",
          "type": "bytes32"
        }
      ],
      "payable": false,
      "stateMutability": "view",
      "type": "function",
      "signature": "0x552c1e55"
    }
  ],
  "bytecode": "0x608060405234801561001057600080fd5b5060405160608062003e11833981018060405281019080805190602001909291908051906020019092919080519060200190929190505050808284336000806101000a81548173ffffffffffffffffffffffffffffffffffffffff021916908373ffffffffffffffffffffffffffffffffffffffff16021790555080600060146101000a81548160ff0219169083151502179055505060008111151561011e576040517f08c379a00000000000000000000000000000000000000000000000000000000081526004018080602001828103825260208152602001807f54686520696e697469616c206465706f7369742063616e6e6f7420626520302e81525060200191505060405180910390fd5b806001819055505060008173ffffffffffffffffffffffffffffffffffffffff16141515156101b5576040517f08c379a00000000000000000000000000000000000000000000000000000000081526004018080602001828103825260188152602001807f4e657720616464726573732063616e6e6f7420626520302e000000000000000081525060200191505060405180910390fd5b80600560006101000a81548173ffffffffffffffffffffffffffffffffffffffff021916908373ffffffffffffffffffffffffffffffffffffffff1602179055505082600060146101000a81548160ff0219169083151502179055508160018190555080600560006101000a81548173ffffffffffffffffffffffffffffffffffffffff021916908373ffffffffffffffffffffffffffffffffffffffff160217905550505050613ba5806200026c6000396000f300608060405260043610610133576000357c0100000000000000000000000000000000000000000000000000000000900463ffffffff1680630bbbcbb21461013857806313af40351461019357806316c38b3c146101ee578063226dfb42146102355780632c333eab146102ba578063333271d01461031557806339a874861461036457806350295c67146103a957806350bb553a14610420578063552c1e551461047b5780637527b1ca146104c8578063893d20e814610573578063954d4add146105ca57806399763af614610626578063adf8252d14610651578063b187bd2614610692578063c399ec88146106c1578063cb3c4cbc146106ec578063cde0a4f814610763578063dd47050f146107be578063e23d7c5b146107ed578063f5bade6614610872578063f7e317f4146108b7575b600080fd5b34801561014457600080fd5b50610179600480360381019080803573ffffffffffffffffffffffffffffffffffffffff16906020019092919050505061090e565b604051808215151515815260200191505060405180910390f35b34801561019f57600080fd5b506101d4600480360381019080803573ffffffffffffffffffffffffffffffffffffffff169060200190929190505050610b4f565b604051808215151515815260200191505060405180910390f35b3480156101fa57600080fd5b5061021b600480360381019080803515159060200190929190505050610e58565b604051808215151515815260200191505060405180910390f35b34801561024157600080fd5b506102a0600480360381019080803573ffffffffffffffffffffffffffffffffffffffff169060200190929190803573ffffffffffffffffffffffffffffffffffffffff1690602001909291908035906020019092919050505061105e565b604051808215151515815260200191505060405180910390f35b3480156102c657600080fd5b506102fb600480360381019080803573ffffffffffffffffffffffffffffffffffffffff169060200190929190505050611455565b604051808215151515815260200191505060405180910390f35b34801561032157600080fd5b5061034a600480360381019080803590602001909291908035906020019092919050505061172f565b604051808215151515815260200191505060405180910390f35b34801561037057600080fd5b5061039360048036038101908080356000191690602001909291905050506119b5565b6040518082815260200191505060405180910390f35b3480156103b557600080fd5b5061040a600480360381019080803573ffffffffffffffffffffffffffffffffffffffff169060200190929190803573ffffffffffffffffffffffffffffffffffffffff169060200190929190505050612242565b6040518082815260200191505060405180910390f35b34801561042c57600080fd5b50610461600480360381019080803573ffffffffffffffffffffffffffffffffffffffff169060200190929190505050612367565b604051808215151515815260200191505060405180910390f35b34801561048757600080fd5b506104aa60048036038101908080356000191690602001909291905050506123bd565b60405180826000191660001916815260200191505060405180910390f35b3480156104d457600080fd5b506104f76004803603810190808035600019169060200190929190505050612450565b604051808473ffffffffffffffffffffffffffffffffffffffff1673ffffffffffffffffffffffffffffffffffffffff1681526020018373ffffffffffffffffffffffffffffffffffffffff1673ffffffffffffffffffffffffffffffffffffffff168152602001828152602001935050505060405180910390f35b34801561057f57600080fd5b506105886124d0565b604051808273ffffffffffffffffffffffffffffffffffffffff1673ffffffffffffffffffffffffffffffffffffffff16815260200191505060405180910390f35b61060c600480360381019080803573ffffffffffffffffffffffffffffffffffffffff16906020019092919080356000191690602001909291905050506124f9565b604051808215151515815260200191505060405180910390f35b34801561063257600080fd5b5061063b612a6e565b6040518082815260200191505060405180910390f35b34801561065d57600080fd5b5061067c60048036038101908080359060200190929190505050612a78565b6040518082815260200191505060405180910390f35b34801561069e57600080fd5b506106a7612a95565b604051808215151515815260200191505060405180910390f35b3480156106cd57600080fd5b506106d6612aab565b6040518082815260200191505060405180910390f35b3480156106f857600080fd5b5061074d600480360381019080803573ffffffffffffffffffffffffffffffffffffffff169060200190929190803573ffffffffffffffffffffffffffffffffffffffff169060200190929190505050612ab5565b6040518082815260200191505060405180910390f35b34801561076f57600080fd5b506107a4600480360381019080803573ffffffffffffffffffffffffffffffffffffffff169060200190929190505050612bdd565b604051808215151515815260200191505060405180910390f35b3480156107ca57600080fd5b506107d3612f0a565b604051808215151515815260200191505060405180910390f35b3480156107f957600080fd5b50610858600480360381019080803573ffffffffffffffffffffffffffffffffffffffff169060200190929190803573ffffffffffffffffffffffffffffffffffffffff16906020019092919080359060200190929190505050612ff9565b604051808215151515815260200191505060405180910390f35b34801561087e57600080fd5b5061089d6004803603810190808035906020019092919050505061323b565b604051808215151515815260200191505060405180910390f35b3480156108c357600080fd5b506108cc6134c3565b604051808273ffffffffffffffffffffffffffffffffffffffff1673ffffffffffffffffffffffffffffffffffffffff16815260200191505060405180910390f35b60008060009054906101000a900473ffffffffffffffffffffffffffffffffffffffff1673ffffffffffffffffffffffffffffffffffffffff163373ffffffffffffffffffffffffffffffffffffffff161415156109fa576040517f08c379a00000000000000000000000000000000000000000000000000000000081526004018080602001828103825260228152602001807f4f6e6c79206f776e65722063616e20706572666f726d2074686973206163746981526020017f6f6e00000000000000000000000000000000000000000000000000000000000081525060400191505060405180910390fd5b610a0382612367565b1515610a9d576040517f08c379a00000000000000000000000000000000000000000000000000000000081526004018080602001828103825260218152602001807f476976656e2061646472657373206973206e6f74206120746f6c6c20626f6f7481526020017f680000000000000000000000000000000000000000000000000000000000000081525060400191505060405180910390fd5b600260008373ffffffffffffffffffffffffffffffffffffffff1673ffffffffffffffffffffffffffffffffffffffff16815260200190815260200160002060006101000a81549060ff02191690558173ffffffffffffffffffffffffffffffffffffffff163373ffffffffffffffffffffffffffffffffffffffff167f5b34220b1e6888774f5c1badf295633d5d8d4ae02d5e3019e422b3debfe8967860405160405180910390a360019050919050565b60008060009054906101000a900473ffffffffffffffffffffffffffffffffffffffff1673ffffffffffffffffffffffffffffffffffffffff163373ffffffffffffffffffffffffffffffffffffffff16141515610c3b576040517f08c379a00000000000000000000000000000000000000000000000000000000081526004018080602001828103825260228152602001807f4f6e6c79206f776e65722063616e20706572666f726d2074686973206163746981526020017f6f6e00000000000000000000000000000000000000000000000000000000000081525060400191505060405180910390fd5b60008273ffffffffffffffffffffffffffffffffffffffff1614151515610cca576040517f08c379a000000000000000000000000000000000000000000000000000000000815260040180806020018281038252601d8152602001807f4e6577206f776e65722063616e6e6f742062652030206164647265737300000081525060200191505060405180910390fd5b3373ffffffffffffffffffffffffffffffffffffffff168273ffffffffffffffffffffffffffffffffffffffff1614151515610d94576040517f08c379a00000000000000000000000000000000000000000000000000000000081526004018080602001828103825260278152602001807f4e6577206f776e6572206d75737420626520646966666572656e74207468616e81526020017f2073656e6465720000000000000000000000000000000000000000000000000081525060400191505060405180910390fd5b816000806101000a81548173ffffffffffffffffffffffffffffffffffffffff021916908373ffffffffffffffffffffffffffffffffffffffff1602179055506000809054906101000a900473ffffffffffffffffffffffffffffffffffffffff1673ffffffffffffffffffffffffffffffffffffffff163373ffffffffffffffffffffffffffffffffffffffff167fa1d2149652d81eb35c360c115fc7ac594124cb1ea8a5a33e9a7f5768c62869fb60405160405180910390a360019050919050565b60008060009054906101000a900473ffffffffffffffffffffffffffffffffffffffff1673ffffffffffffffffffffffffffffffffffffffff163373ffffffffffffffffffffffffffffffffffffffff16141515610f44576040517f08c379a00000000000000000000000000000000000000000000000000000000081526004018080602001828103825260228152602001807f4f6e6c79206f776e65722063616e20706572666f726d2074686973206163746981526020017f6f6e00000000000000000000000000000000000000000000000000000000000081525060400191505060405180910390fd5b600060149054906101000a900460ff16151582151514151515610ff5576040517f08c379a000000000000000000000000000000000000000000000000000000000815260040180806020018281038252602d8152602001807f4e6577207374617465206d75737420626520646966666572656e74207468616e81526020017f2063757272656e74206f6e652e0000000000000000000000000000000000000081525060400191505060405180910390fd5b81600060146101000a81548160ff0219169083151502179055508115153373ffffffffffffffffffffffffffffffffffffffff167fae0f86d9801b0bd39a2ce25d9fd1f202f2fd22e80150be4a99adb0275a635d6c60405160405180910390a360019050919050565b60008060008060008060008060008060149054906101000a900460ff161515156110f0576040517f08c379a00000000000000000000000000000000000000000000000000000000081526004018080602001828103825260138152602001807f4d757374206e6f74206265207061757365642e0000000000000000000000000081525060200191505060405180910390fd5b60008a111515611168576040517f08c379a000000000000000000000000000000000000000000000000000000000815260040180806020018281038252601c8152602001807f436f756e74206d75737420626520626967676572207468616e2030210000000081525060200191505060405180910390fd5b8b8b604051602001808373ffffffffffffffffffffffffffffffffffffffff1673ffffffffffffffffffffffffffffffffffffffff166c010000000000000000000000000281526014018273ffffffffffffffffffffffffffffffffffffffff1673ffffffffffffffffffffffffffffffffffffffff166c01000000000000000000000000028152601401925050506040516020818303038152906040526040518082805190602001908083835b60208310151561123b5780518252602082019150602081019050602083039250611216565b6001836020036101000a03801982511681845116808217855250505050505090500191505060405180910390209750600460008960001916600019168152602001908152602001600020549650600087111561144257600760008960001916600019168152602001908152602001600020955089866000015410151515611350576040517f08c379a000000000000000000000000000000000000000000000000000000000815260040180806020018281038252602f8152602001807f50656e64696e67207061796d656e74206d75737420626520626967676572207481526020017f68616e20676976656e20636f756e74000000000000000000000000000000000081525060400191505060405180910390fd5b600094505b89851015611441578560010154935085600201600085815260200190815260200160002054925061138683886134ed565b809250819350505060006001028660020160008681526020019081526020016000208160001916905550856000016000815480929190600190039190505550856001016000815480929190600101919050555082600019168b73ffffffffffffffffffffffffffffffffffffffff167fcc28c1c2c2269c01d739ef1a54d12784fe3052b2f228668ba5f4bc862ebe51bc8385604051808381526020018281526020019250505060405180910390a38480600101955050611355565b5b6001985050505050505050509392505050565b60008060009054906101000a900473ffffffffffffffffffffffffffffffffffffffff1673ffffffffffffffffffffffffffffffffffffffff163373ffffffffffffffffffffffffffffffffffffffff16141515611541576040517f08c379a00000000000000000000000000000000000000000000000000000000081526004018080602001828103825260228152602001807f4f6e6c79206f776e65722063616e20706572666f726d2074686973206163746981526020017f6f6e00000000000000000000000000000000000000000000000000000000000081525060400191505060405180910390fd5b60008273ffffffffffffffffffffffffffffffffffffffff16141515156115f6576040517f08c379a00000000000000000000000000000000000000000000000000000000081526004018080602001828103825260228152602001807f4e657720746f6c6c20626f6f746820616464726573732063616e6e6f7420626581526020017f203000000000000000000000000000000000000000000000000000000000000081525060400191505060405180910390fd5b6115ff82612367565b151515611674576040517f08c379a00000000000000000000000000000000000000000000000000000000081526004018080602001828103825260208152602001807f4164647265737320697320616c7265616479206120746f6c6c20626f6f74682e81525060200191505060405180910390fd5b6001600260008473ffffffffffffffffffffffffffffffffffffffff1673ffffffffffffffffffffffffffffffffffffffff16815260200190815260200160002060006101000a81548160ff0219169083151502179055508173ffffffffffffffffffffffffffffffffffffffff163373ffffffffffffffffffffffffffffffffffffffff167fe8f587f6ae5ef5f7560b94b9369dd242c9de0588c328add1a785044abf837c6d60405160405180910390a360019050919050565b60008060009054906101000a900473ffffffffffffffffffffffffffffffffffffffff1673ffffffffffffffffffffffffffffffffffffffff163373ffffffffffffffffffffffffffffffffffffffff1614151561181b576040517f08c379a00000000000000000000000000000000000000000000000000000000081526004018080602001828103825260228152602001807f4f6e6c79206f776e65722063616e20706572666f726d2074686973206163746981526020017f6f6e00000000000000000000000000000000000000000000000000000000000081525060400191505060405180910390fd5b600083111515611893576040517f08c379a00000000000000000000000000000000000000000000000000000000081526004018080602001828103825260188152602001807f56656869636c6520747970652063616e6e6f742062652030000000000000000081525060200191505060405180910390fd5b81600360008581526020019081526020016000205414151515611944576040517f08c379a00000000000000000000000000000000000000000000000000000000081526004018080602001828103825260328152602001807f4e6577206d756c7469706c696572206d75737420626520646966666572656e7481526020017f207468616e2063757272656e74206f6e652e000000000000000000000000000081525060400191505060405180910390fd5b816003600085815260200190815260200160002081905550823373ffffffffffffffffffffffffffffffffffffffff167f5e168e70d5925560e1407b68dc2495afbc25b36217cc6e4167b2cf3f28a46ef1846040518082815260200191505060405180910390a36001905092915050565b600080600080600080600080600060149054906101000a900460ff16151515611a46576040517f08c379a00000000000000000000000000000000000000000000000000000000081526004018080602001828103825260138152602001807f4d757374206e6f74206265207061757365642e0000000000000000000000000081525060200191505060405180910390fd5b611a4f33612367565b1515611ac3576040517f08c379a000000000000000000000000000000000000000000000000000000000815260040180806020018281038252601b8152602001807f53656e6465722068617320746f20626520746f6c6c20626f6f7468000000000081525060200191505060405180910390fd5b611acc896123bd565b9650600060066000896000191660001916815260200190815260200160002060000160009054906101000a900473ffffffffffffffffffffffffffffffffffffffff1673ffffffffffffffffffffffffffffffffffffffff1614158015611b52575060006006600089600019166000191681526020019081526020016000206003015414155b1515611bec576040517f08c379a000000000000000000000000000000000000000000000000000000000815260040180806020018281038252603a8152602001807f4e6569746865722076656869636c652063616e6e6f74206265203020616e642081526020017f6465706f736974656420776569732063616e6e6f74206265203000000000000081525060400191505060405180910390fd5b60066000886000191660001916815260200190815260200160002095506000611c136134c3565b73ffffffffffffffffffffffffffffffffffffffff1663028e77688860000160009054906101000a900473ffffffffffffffffffffffffffffffffffffffff166040518263ffffffff167c0100000000000000000000000000000000000000000000000000000000028152600401808273ffffffffffffffffffffffffffffffffffffffff1673ffffffffffffffffffffffffffffffffffffffff168152602001915050602060405180830381600087803b158015611cd157600080fd5b505af1158015611ce5573d6000803e3d6000fd5b505050506040513d6020811015611cfb57600080fd5b8101908080519060200190929190505050111515611d81576040517f08c379a00000000000000000000000000000000000000000000000000000000081526004018080602001828103825260198152602001807f56656869636c6520747970652063616e6e6f7420626520302e0000000000000081525060200191505060405180910390fd5b3373ffffffffffffffffffffffffffffffffffffffff168660020160009054906101000a900473ffffffffffffffffffffffffffffffffffffffff1673ffffffffffffffffffffffffffffffffffffffff1614151515611e6f576040517f08c379a000000000000000000000000000000000000000000000000000000000815260040180806020018281038252602a8152602001807f456e74727920626f6f74682063616e6e6f7420626520612073656e646572206f81526020017f6620636f6e74726163740000000000000000000000000000000000000000000081525060400191505060405180910390fd5b600460008760020160009054906101000a900473ffffffffffffffffffffffffffffffffffffffff1633604051602001808373ffffffffffffffffffffffffffffffffffffffff1673ffffffffffffffffffffffffffffffffffffffff166c010000000000000000000000000281526014018273ffffffffffffffffffffffffffffffffffffffff1673ffffffffffffffffffffffffffffffffffffffff166c01000000000000000000000000028152601401925050506040516020818303038152906040526040518082805190602001908083835b602083101515611f6a5780518252602082019150602081019050602083039250611f45565b6001836020036101000a038019825116818451168082178552505050505050905001915050604051809103902060001916600019168152602001908152602001600020549450600085111561202f57611fc387866134ed565b809450819550505086600019163373ffffffffffffffffffffffffffffffffffffffff167fcc28c1c2c2269c01d739ef1a54d12784fe3052b2f228668ba5f4bc862ebe51bc8587604051808381526020018281526020019250505060405180910390a360019750612236565b600760008760020160009054906101000a900473ffffffffffffffffffffffffffffffffffffffff1633604051602001808373ffffffffffffffffffffffffffffffffffffffff1673ffffffffffffffffffffffffffffffffffffffff166c010000000000000000000000000281526014018273ffffffffffffffffffffffffffffffffffffffff1673ffffffffffffffffffffffffffffffffffffffff166c01000000000000000000000000028152601401925050506040516020818303038152906040526040518082805190602001908083835b60208310151561212a5780518252602082019150602081019050602083039250612105565b6001836020036101000a03801982511681845116808217855250505050505090500191505060405180910390206000191660001916815260200190815260200160002091508160010154826000015401905086826002016000838152602001908152602001600020816000191690555081600001600081548092919060010191905055503373ffffffffffffffffffffffffffffffffffffffff168660020160009054906101000a900473ffffffffffffffffffffffffffffffffffffffff1673ffffffffffffffffffffffffffffffffffffffff1688600019167f739c4108960ded7f9e5e6790da2d3baebfb37959560441b5787b8c70676d873c60405160405180910390a4600297505b50505050505050919050565b6000600460008484604051602001808373ffffffffffffffffffffffffffffffffffffffff1673ffffffffffffffffffffffffffffffffffffffff166c010000000000000000000000000281526014018273ffffffffffffffffffffffffffffffffffffffff1673ffffffffffffffffffffffffffffffffffffffff166c01000000000000000000000000028152601401925050506040516020818303038152906040526040518082805190602001908083835b60208310151561231b57805182526020820191506020810190506020830392506122f6565b6001836020036101000a03801982511681845116808217855250505050505090500191505060405180910390206000191660001916815260200190815260200160002054905092915050565b6000600260008373ffffffffffffffffffffffffffffffffffffffff1673ffffffffffffffffffffffffffffffffffffffff16815260200190815260200160002060009054906101000a900460ff169050919050565b6000816040516020018082600019166000191681526020019150506040516020818303038152906040526040518082805190602001908083835b60208310151561241c57805182526020820191506020810190506020830392506123f7565b6001836020036101000a03801982511681845116808217855250505050505090500191505060405180910390209050919050565b60008060008060066000866000191660001916815260200190815260200160002090508060000160009054906101000a900473ffffffffffffffffffffffffffffffffffffffff168160020160009054906101000a900473ffffffffffffffffffffffffffffffffffffffff168260030154935093509350509193909250565b60008060009054906101000a900473ffffffffffffffffffffffffffffffffffffffff16905090565b60008060008060149054906101000a900460ff16151515612582576040517f08c379a00000000000000000000000000000000000000000000000000000000081526004018080602001828103825260138152602001807f4d757374206e6f74206265207061757365642e0000000000000000000000000081525060200191505060405180910390fd5b61258b85612367565b15156125ff576040517f08c379a000000000000000000000000000000000000000000000000000000000815260040180806020018281038252601e8152602001807f456e74727920626f6f7468206d75737420626520746f6c6c20626f6f7468000081525060200191505060405180910390fd5b600060066000866000191660001916815260200190815260200160002060000160009054906101000a900473ffffffffffffffffffffffffffffffffffffffff1673ffffffffffffffffffffffffffffffffffffffff161415156126cb576040517f08c379a00000000000000000000000000000000000000000000000000000000081526004018080602001828103825260148152602001807f56656869636c652063616e6e6f7420626520302e00000000000000000000000081525060200191505060405180910390fd5b6126d36134c3565b9150600360008373ffffffffffffffffffffffffffffffffffffffff1663028e7768336040518263ffffffff167c0100000000000000000000000000000000000000000000000000000000028152600401808273ffffffffffffffffffffffffffffffffffffffff1673ffffffffffffffffffffffffffffffffffffffff168152602001915050602060405180830381600087803b15801561277457600080fd5b505af1158015612788573d6000803e3d6000fd5b505050506040513d602081101561279e57600080fd5b8101908080519060200190929190505050815260200190815260200160002054905060008111151561285e576040517f08c379a00000000000000000000000000000000000000000000000000000000081526004018080602001828103825260288152602001807f56656869636c65206d756c7469706c696572206d75737420626520626967676581526020017f72207468616e203000000000000000000000000000000000000000000000000081525060400191505060405180910390fd5b612873816001546135e390919063ffffffff16565b34101515156128ea576040517f08c379a00000000000000000000000000000000000000000000000000000000081526004018080602001828103825260208152602001807f4465706f736974206d75737420626520626967676572206f7220657175616c2181525060200191505060405180910390fd5b6080604051908101604052803373ffffffffffffffffffffffffffffffffffffffff1681526020018281526020018673ffffffffffffffffffffffffffffffffffffffff1681526020013481525060066000866000191660001916815260200190815260200160002060008201518160000160006101000a81548173ffffffffffffffffffffffffffffffffffffffff021916908373ffffffffffffffffffffffffffffffffffffffff1602179055506020820151816001015560408201518160020160006101000a81548173ffffffffffffffffffffffffffffffffffffffff021916908373ffffffffffffffffffffffffffffffffffffffff1602179055506060820151816003015590505083600019168573ffffffffffffffffffffffffffffffffffffffff163373ffffffffffffffffffffffffffffffffffffffff167f26213b556e4ae8dd63f1f81f4ea6181803d9a3efcad477cd84dcae45a264c30b346040518082815260200191505060405180910390a460019250505092915050565b6000600854905090565b600060036000838152602001908152602001600020549050919050565b60008060149054906101000a900460ff16905090565b6000600154905090565b6000600760008484604051602001808373ffffffffffffffffffffffffffffffffffffffff1673ffffffffffffffffffffffffffffffffffffffff166c010000000000000000000000000281526014018273ffffffffffffffffffffffffffffffffffffffff1673ffffffffffffffffffffffffffffffffffffffff166c01000000000000000000000000028152601401925050506040516020818303038152906040526040518082805190602001908083835b602083101515612b8e5780518252602082019150602081019050602083039250612b69565b6001836020036101000a03801982511681845116808217855250505050505090500191505060405180910390206000191660001916815260200190815260200160002060000154905092915050565b6000808273ffffffffffffffffffffffffffffffffffffffff1614151515612c6d576040517f08c379a00000000000000000000000000000000000000000000000000000000081526004018080602001828103825260188152602001807f4e657720616464726573732063616e6e6f7420626520302e000000000000000081525060200191505060405180910390fd5b600560009054906101000a900473ffffffffffffffffffffffffffffffffffffffff1673ffffffffffffffffffffffffffffffffffffffff168273ffffffffffffffffffffffffffffffffffffffff1614151515612d59576040517f08c379a000000000000000000000000000000000000000000000000000000000815260040180806020018281038252602b8152602001807f4e657720726567756c61746f722063616e6e6f74206265207468652073616d6581526020017f20726567756c61746f722e00000000000000000000000000000000000000000081525060400191505060405180910390fd5b600560009054906101000a900473ffffffffffffffffffffffffffffffffffffffff1673ffffffffffffffffffffffffffffffffffffffff163373ffffffffffffffffffffffffffffffffffffffff16141515612e44576040517f08c379a00000000000000000000000000000000000000000000000000000000081526004018080602001828103825260268152602001807f53656e646572206d757374206265206120726567756c61746f72206f6620636f81526020017f6e7472616374000000000000000000000000000000000000000000000000000081525060400191505060405180910390fd5b8173ffffffffffffffffffffffffffffffffffffffff16600560009054906101000a900473ffffffffffffffffffffffffffffffffffffffff1673ffffffffffffffffffffffffffffffffffffffff167fa32c4b1f26f0d877f643f7fb9db131f9cebf04d120fe5ada74c0bdfc808dab8360405160405180910390a381600560006101000a81548173ffffffffffffffffffffffffffffffffffffffff021916908373ffffffffffffffffffffffffffffffffffffffff16021790555060019050919050565b600080600854905060006008819055506000809054906101000a900473ffffffffffffffffffffffffffffffffffffffff1673ffffffffffffffffffffffffffffffffffffffff166108fc829081150290604051600060405180830381858888f19350505050158015612f81573d6000803e3d6000fd5b506000809054906101000a900473ffffffffffffffffffffffffffffffffffffffff1673ffffffffffffffffffffffffffffffffffffffff167f851c9440e522074225f247c12030d8a38be67fbda82238aac95d4a4454647f9d826040518082815260200191505060405180910390a2600191505090565b60008060008060009054906101000a900473ffffffffffffffffffffffffffffffffffffffff1673ffffffffffffffffffffffffffffffffffffffff163373ffffffffffffffffffffffffffffffffffffffff161415156130e8576040517f08c379a00000000000000000000000000000000000000000000000000000000081526004018080602001828103825260228152602001807f4f6e6c79206f776e65722063616e20706572666f726d2074686973206163746981526020017f6f6e00000000000000000000000000000000000000000000000000000000000081525060400191505060405180910390fd5b6130f3868686613621565b508585604051602001808373ffffffffffffffffffffffffffffffffffffffff1673ffffffffffffffffffffffffffffffffffffffff166c010000000000000000000000000281526014018273ffffffffffffffffffffffffffffffffffffffff1673ffffffffffffffffffffffffffffffffffffffff166c01000000000000000000000000028152601401925050506040516020818303038152906040526040518082805190602001908083835b6020831015156131c757805182526020820191506020810190506020830392506131a2565b6001836020036101000a03801982511681845116808217855250505050505090500191505060405180910390209150600760008360001916600019168152602001908152602001600020600001549050600081111561322e5761322c8686600161105e565b505b6001925050509392505050565b60008060009054906101000a900473ffffffffffffffffffffffffffffffffffffffff1673ffffffffffffffffffffffffffffffffffffffff163373ffffffffffffffffffffffffffffffffffffffff16141515613327576040517f08c379a00000000000000000000000000000000000000000000000000000000081526004018080602001828103825260228152602001807f4f6e6c79206f776e65722063616e20706572666f726d2074686973206163746981526020017f6f6e00000000000000000000000000000000000000000000000000000000000081525060400191505060405180910390fd5b6000821115156133c5576040517f08c379a00000000000000000000000000000000000000000000000000000000081526004018080602001828103825260248152602001807f4465706f73697465642077656973206d7573742062652062696767657220746881526020017f616e20300000000000000000000000000000000000000000000000000000000081525060400191505060405180910390fd5b6001548214151515613465576040517f08c379a000000000000000000000000000000000000000000000000000000000815260040180806020018281038252602d8152602001807f4e6577206465706f736974206973206e6f20646966666572656e74207468616e81526020017f2063757272656e74206f6e652e0000000000000000000000000000000000000081525060400191505060405180910390fd5b816001819055503373ffffffffffffffffffffffffffffffffffffffff167ffa53ebd539f52eb4ef352ffacb2f8f5f8080cd8bb7ebb2f1acab3e1ce4bd65cb836040518082815260200191505060405180910390a260019050919050565b6000600560009054906101000a900473ffffffffffffffffffffffffffffffffffffffff16905090565b600080600080600060066000886000191660001916815260200190815260200160002092506135298360010154876135e390919063ffffffff16565b915082600301549050808211156135435760009450613549565b81810394505b848103935083600860008282540192505081905550600083600301819055508260000160009054906101000a900473ffffffffffffffffffffffffffffffffffffffff1673ffffffffffffffffffffffffffffffffffffffff166108fc869081150290604051600060405180830381858888f193505050501580156135d2573d6000803e3d6000fd5b508484945094505050509250929050565b60008060008414156135f8576000915061361a565b828402905082848281151561360957fe5b0414151561361657600080fd5b8091505b5092915050565b6000806000809054906101000a900473ffffffffffffffffffffffffffffffffffffffff1673ffffffffffffffffffffffffffffffffffffffff163373ffffffffffffffffffffffffffffffffffffffff1614151561370e576040517f08c379a00000000000000000000000000000000000000000000000000000000081526004018080602001828103825260228152602001807f4f6e6c79206f776e65722063616e20706572666f726d2074686973206163746981526020017f6f6e00000000000000000000000000000000000000000000000000000000000081525060400191505060405180910390fd5b8373ffffffffffffffffffffffffffffffffffffffff168573ffffffffffffffffffffffffffffffffffffffff16141515156137d8576040517f08c379a00000000000000000000000000000000000000000000000000000000081526004018080602001828103825260318152602001807f416e20656e74727920626f6f746820616e64206578697420626f6f746820636181526020017f6e6e6f74206265207468652073616d652100000000000000000000000000000081525060400191505060405180910390fd5b60008573ffffffffffffffffffffffffffffffffffffffff16118015613814575060008473ffffffffffffffffffffffffffffffffffffffff16115b1515613888576040517f08c379a000000000000000000000000000000000000000000000000000000000815260040180806020018281038252601e8152602001807f45697468657220626f6f746873206973206120307820616464726573732e000081525060200191505060405180910390fd5b61389185612367565b80156138a257506138a184612367565b5b151561393c576040517f08c379a00000000000000000000000000000000000000000000000000000000081526004018080602001828103825260288152602001807f456e74727920626f6f746820616e64206578697420626f6f7468206d7573742081526020017f626520746f6c6c2100000000000000000000000000000000000000000000000081525060400191505060405180910390fd5b8484604051602001808373ffffffffffffffffffffffffffffffffffffffff1673ffffffffffffffffffffffffffffffffffffffff166c010000000000000000000000000281526014018273ffffffffffffffffffffffffffffffffffffffff1673ffffffffffffffffffffffffffffffffffffffff166c01000000000000000000000000028152601401925050506040516020818303038152906040526040518082805190602001908083835b602083101515613a0f57805182526020820191506020810190506020830392506139ea565b6001836020036101000a03801982511681845116808217855250505050505090500191505060405180910390209050826004600083600019166000191681526020019081526020016000205414151515613ad1576040517f08c379a000000000000000000000000000000000000000000000000000000000815260040180806020018281038252601c8152602001807f5468657265206d7573742061206368616e676520696e2070726963650000000081525060200191505060405180910390fd5b82600460008360001916600019168152602001908152602001600020819055508373ffffffffffffffffffffffffffffffffffffffff168573ffffffffffffffffffffffffffffffffffffffff163373ffffffffffffffffffffffffffffffffffffffff167f5b631b37e5dfb698eace7497bcae58e93fac69e007127739fc79109d99c58332866040518082815260200191505060405180910390a4600191505093925050505600a165627a7a723058209bb63d563f18906288d37219b143efcd1fd75f0bfbb77cf51f18697246a4d5240029",
  "source": "pragma solidity ^0.4.24;\n\nimport \"./Owned.sol\";\nimport \"./Pausable.sol\";\nimport \"./Regulated.sol\";\nimport \"./MultiplierHolder.sol\";\nimport \"./DepositHolder.sol\";\nimport \"./RoutePriceHolder.sol\";\nimport \"./interfaces/TollBoothOperatorI.sol\";\nimport \"./Regulator.sol\";\nimport \"./TollBoothHolder.sol\";\nimport \"./SafeMath.sol\";\n\ncontract TollBoothOperator is Owned, Pausable, DepositHolder, TollBoothHolder, \nMultiplierHolder, RoutePriceHolder, Regulated, TollBoothOperatorI {\n\n    using SafeMath for uint;\n\n    struct Entry {\n        address vehicle;\n        uint multiplier;\n        address entryBooth;\n        uint depositedWeis;\n    }\n\n    struct RouteMetadata {\n        uint pendingPaymentCount;\n        uint clearedPaymentCount;\n        mapping(uint => bytes32) pendingPayments;\n    }\n\n    mapping(bytes32 => Entry) internal entries;\n\n    mapping(bytes32 => RouteMetadata) internal routesMetadata;\n\n    uint internal collectedFees;\n\n    event LogRoadEntered(address indexed vehicle, address indexed entryBooth, bytes32 indexed exitSecretHashed, uint depositedWeis);\n    event LogRoadExited(address indexed exitBooth, bytes32 indexed exitSecretHashed, uint finalFee, uint refundWeis);\n    event LogPendingPayment(bytes32 indexed exitSecretHashed, address indexed entryBooth, address indexed exitBooth);\n    event LogFeesCollected(address indexed owner, uint amount);\n    \n    constructor(bool _state, uint _deposit, address _regulator)\n    public \n    Pausable(_state) \n    DepositHolder(_deposit)\n    Regulated(_regulator) { \n        paused = _state;\n        deposit = _deposit;\n        regulator = _regulator;\n    }\n\n    function () public payable {\n        revert();\n    }\n\n    function enterRoad(address _entryBooth, bytes32 _exitSecretHashed) public payable whenNotPaused returns (bool success) {\n        require(isTollBooth(_entryBooth), \"Entry booth must be toll booth\");\n        require(entries[_exitSecretHashed].vehicle == 0x0, \"Vehicle cannot be 0.\");\n        Regulator roadRegulator = Regulator(getRegulator());\n        uint vehicleMultiplier = multipliers[roadRegulator.vehicles(msg.sender)];\n        require(vehicleMultiplier > 0, \"Vehicle multiplier must be bigger than 0\");\n        require(msg.value >= deposit.mul(vehicleMultiplier), \"Deposit must be bigger or equal!\");\n        entries[_exitSecretHashed] = Entry(msg.sender, vehicleMultiplier, _entryBooth, msg.value);\n        emit LogRoadEntered(msg.sender, _entryBooth, _exitSecretHashed, msg.value);\n        return true;\n    }\n\n    function getVehicleEntry(bytes32 _exitSecretHashed) public view returns(address vehicle, address entryBooth, uint depositedWeis) {\n        Entry storage entry = entries[_exitSecretHashed];\n        return (entry.vehicle, entry.entryBooth, entry.depositedWeis);\n    }\n\n    function reportExitRoad(bytes32 _exitSecretClear) public whenNotPaused returns(uint status) {\n        require(isTollBooth(msg.sender), \"Sender has to be toll booth\");\n        bytes32 exitSecretHashed = hashSecret(_exitSecretClear);\n        require(entries[exitSecretHashed].vehicle != 0x0 && entries[exitSecretHashed].depositedWeis != 0, \"Neither vehicle cannot be 0 and deposited weis cannot be 0\");\n        Entry storage entry = entries[exitSecretHashed];\n        require(Regulator(getRegulator()).vehicles(entry.vehicle) > 0, \"Vehicle type cannot be 0.\");\n        require(entry.entryBooth != msg.sender, \"Entry booth cannot be a sender of contract\");\n        uint price = priceHolders[keccak256(abi.encodePacked(entry.entryBooth, msg.sender))];\n        if (price > 0) {\n            uint refund;\n            uint finalFee;\n            (refund, finalFee) = executePayment(exitSecretHashed, price);\n            emit LogRoadExited(msg.sender, exitSecretHashed, finalFee, refund);\n            return 1;\n        } else {\n            RouteMetadata storage metadata = routesMetadata[keccak256(abi.encodePacked(entry.entryBooth, msg.sender))];\n            uint index = metadata.pendingPaymentCount + metadata.clearedPaymentCount;\n            metadata.pendingPayments[index] = exitSecretHashed;\n            metadata.pendingPaymentCount++;\n            emit LogPendingPayment(exitSecretHashed, entry.entryBooth, msg.sender);\n            return 2;\n        }\n    }\n    \n    function getPendingPaymentCount(address entryBooth, address exitBooth) public view returns (uint count) {\n        return routesMetadata[keccak256(abi.encodePacked(entryBooth, exitBooth))].pendingPaymentCount;\n    }\n\n    function clearSomePendingPayments(address _entryBooth, address _exitBooth, uint _count) public whenNotPaused returns (bool success) {\n        require(_count > 0, \"Count must be bigger than 0!\");\n        bytes32 _hash = keccak256(abi.encodePacked(_entryBooth, _exitBooth));\n        uint routePrice = priceHolders[_hash];\n        if (routePrice > 0) {\n            RouteMetadata storage routeMetadata = routesMetadata[_hash];\n            require(routeMetadata.pendingPaymentCount >= _count, \"Pending payment must be bigger than given count\");\n            for (uint i = 0; i < _count; i++) {\n                uint paymentIndex = routeMetadata.clearedPaymentCount;\n                bytes32 exitSecretHashed = routeMetadata.pendingPayments[paymentIndex];\n                uint refund;\n                uint finalFee;\n                (refund, finalFee) = executePayment(exitSecretHashed, routePrice);\n                routeMetadata.pendingPayments[paymentIndex] = bytes32(0);\n                routeMetadata.pendingPaymentCount--;\n                routeMetadata.clearedPaymentCount++;\n                emit LogRoadExited(_exitBooth, exitSecretHashed, finalFee, refund);\n            }\n        }\n        return true;\n    }\n\n    function setRoutePrice(address _entryBooth, address _exitBooth, uint _priceWeis) public fromOwner returns(bool success) {\n        super.setRoutePrice(_entryBooth, _exitBooth, _priceWeis);\n        bytes32 bootsHashed = keccak256(abi.encodePacked(_entryBooth, _exitBooth));\n        uint pendingPaymentCount = routesMetadata[bootsHashed].pendingPaymentCount;\n        if (pendingPaymentCount > 0) {\n            clearSomePendingPayments(_entryBooth, _exitBooth, 1);\n        }\n        return true;\n    }\n\n    function getCollectedFeesAmount() public view returns(uint amount) {\n        return collectedFees;\n    }\n\n    function withdrawCollectedFees() public returns(bool success) {\n        uint collected = collectedFees;\n        collectedFees = 0;\n        owner.transfer(collected);\n        emit LogFeesCollected(owner, collected);\n        return true;\n    }\n\n    function hashSecret(bytes32 _secret) public view returns(bytes32 _hash) {\n        return keccak256(abi.encodePacked(_secret));\n    }\n\n    function executePayment(bytes32 _exitSecretHashed, uint _routePrice) private returns(uint refund, uint finalFee) {\n        Entry storage entry = entries[_exitSecretHashed];\n        uint vehiclePrice = _routePrice.mul(entry.multiplier);\n        uint depositedWeis = entry.depositedWeis;\n        if (vehiclePrice > depositedWeis) {\n            refund = 0;\n        } else {\n            refund = depositedWeis - vehiclePrice;\n        }\n        finalFee = depositedWeis - refund;\n        collectedFees += finalFee;\n        entry.depositedWeis = 0;\n        entry.vehicle.transfer(refund);\n        return(refund, finalFee);\n    }\n}",
  "sourcePath": "/Users/wojciechkalinski/workspace-oracle-exam2/wojkal-code/contracts/TollBoothOperator.sol",
  "compiler": {
    "name": "solc",
    "version": "0.4.25+commit.59dbf8f1.Emscripten.clang"
  },
  "schemaVersion": "3.0.0-beta.2",
  "updatedAt": "2019-05-23T16:05:46.784Z"
}